{
  "_format": "hh-sol-artifact-1",
  "contractName": "LSP8Marketplace",
  "sourceName": "contracts/LSP8Marketplace.sol",
  "abi": [
    {
      "inputs": [
        {
          "internalType": "address",
          "name": "_owner",
          "type": "address"
        },
        {
          "internalType": "address",
          "name": "_placeholder",
          "type": "address"
        }
      ],
      "stateMutability": "nonpayable",
      "type": "constructor"
    },
    {
      "inputs": [
        {
          "internalType": "bytes32",
          "name": "key",
          "type": "bytes32"
        }
      ],
      "name": "EnumerableMapNonexistentKey",
      "type": "error"
    },
    {
      "inputs": [],
      "name": "InvalidFamilySignature",
      "type": "error"
    },
    {
      "anonymous": false,
      "inputs": [
        {
          "indexed": true,
          "internalType": "bytes32",
          "name": "tradeId",
          "type": "bytes32"
        },
        {
          "indexed": true,
          "internalType": "string",
          "name": "trackingId",
          "type": "string"
        }
      ],
      "name": "Dispute",
      "type": "event"
    },
    {
      "anonymous": false,
      "inputs": [
        {
          "indexed": false,
          "internalType": "bytes32",
          "name": "tradeId",
          "type": "bytes32"
        }
      ],
      "name": "Dissolved",
      "type": "event"
    },
    {
      "anonymous": false,
      "inputs": [
        {
          "indexed": false,
          "internalType": "bytes32",
          "name": "tradeId",
          "type": "bytes32"
        }
      ],
      "name": "DissolvedFiat",
      "type": "event"
    },
    {
      "anonymous": false,
      "inputs": [
        {
          "indexed": false,
          "internalType": "address",
          "name": "collection",
          "type": "address"
        },
        {
          "indexed": false,
          "internalType": "bytes32",
          "name": "tokenId",
          "type": "bytes32"
        }
      ],
      "name": "ItemDelisted",
      "type": "event"
    },
    {
      "anonymous": false,
      "inputs": [
        {
          "indexed": true,
          "internalType": "address",
          "name": "collection",
          "type": "address"
        },
        {
          "indexed": true,
          "internalType": "bytes32",
          "name": "tokenId",
          "type": "bytes32"
        },
        {
          "indexed": true,
          "internalType": "uint256",
          "name": "price",
          "type": "uint256"
        },
        {
          "indexed": false,
          "internalType": "string",
          "name": "listingURl",
          "type": "string"
        },
        {
          "indexed": false,
          "internalType": "bool",
          "name": "ItemListed",
          "type": "bool"
        },
        {
          "indexed": false,
          "internalType": "enum LSP8Marketplace.collectionType",
          "name": "",
          "type": "uint8"
        }
      ],
      "name": "ItemListed",
      "type": "event"
    },
    {
      "anonymous": false,
      "inputs": [
        {
          "indexed": false,
          "internalType": "bytes32",
          "name": "tradeId",
          "type": "bytes32"
        }
      ],
      "name": "Received",
      "type": "event"
    },
    {
      "anonymous": false,
      "inputs": [
        {
          "indexed": false,
          "internalType": "bytes32",
          "name": "tradeId",
          "type": "bytes32"
        }
      ],
      "name": "ReceivedFiat",
      "type": "event"
    },
    {
      "anonymous": false,
      "inputs": [
        {
          "indexed": false,
          "internalType": "bytes32",
          "name": "tradeId",
          "type": "bytes32"
        }
      ],
      "name": "Resolved",
      "type": "event"
    },
    {
      "anonymous": false,
      "inputs": [
        {
          "indexed": false,
          "internalType": "bytes32",
          "name": "tradeId",
          "type": "bytes32"
        }
      ],
      "name": "ResolvedFiat",
      "type": "event"
    },
    {
      "anonymous": false,
      "inputs": [
        {
          "indexed": true,
          "internalType": "bytes32",
          "name": "tradeId",
          "type": "bytes32"
        },
        {
          "indexed": true,
          "internalType": "string",
          "name": "trackingId",
          "type": "string"
        }
      ],
      "name": "Sent",
      "type": "event"
    },
    {
      "anonymous": false,
      "inputs": [
        {
          "indexed": true,
          "internalType": "bytes32",
          "name": "tradeId",
          "type": "bytes32"
        },
        {
          "indexed": true,
          "internalType": "address",
          "name": "seller",
          "type": "address"
        },
        {
          "indexed": true,
          "internalType": "address",
          "name": "buyer",
          "type": "address"
        },
        {
          "indexed": false,
          "internalType": "address",
          "name": "escrow",
          "type": "address"
        },
        {
          "indexed": false,
          "internalType": "address",
          "name": "collection",
          "type": "address"
        },
        {
          "indexed": false,
          "internalType": "bytes32",
          "name": "tokenId",
          "type": "bytes32"
        },
        {
          "indexed": false,
          "internalType": "uint256",
          "name": "price",
          "type": "uint256"
        },
        {
          "indexed": false,
          "internalType": "string",
          "name": "tradeUrl",
          "type": "string"
        }
      ],
      "name": "TradeInitiated",
      "type": "event"
    },
    {
      "inputs": [
        {
          "internalType": "address",
          "name": "LSP8Address",
          "type": "address"
        },
        {
          "internalType": "bytes32",
          "name": "tokenId",
          "type": "bytes32"
        }
      ],
      "name": "_returnLSP7Prices",
      "outputs": [
        {
          "internalType": "address[]",
          "name": "",
          "type": "address[]"
        },
        {
          "internalType": "uint256[]",
          "name": "",
          "type": "uint256[]"
        }
      ],
      "stateMutability": "view",
      "type": "function"
    },
    {
      "inputs": [
        {
          "internalType": "address",
          "name": "LSP8Address",
          "type": "address"
        },
        {
          "internalType": "bytes32",
          "name": "tokenId",
          "type": "bytes32"
        }
      ],
      "name": "_returnLYXPrice",
      "outputs": [
        {
          "internalType": "uint256",
          "name": "",
          "type": "uint256"
        }
      ],
      "stateMutability": "view",
      "type": "function"
    },
    {
      "inputs": [
        {
          "internalType": "address",
          "name": "_juror",
          "type": "address"
        }
      ],
      "name": "addJuror",
      "outputs": [],
      "stateMutability": "nonpayable",
      "type": "function"
    },
    {
      "inputs": [
        {
          "internalType": "address",
          "name": "LSP8Address",
          "type": "address"
        },
        {
          "internalType": "bytes32",
          "name": "tokenId",
          "type": "bytes32"
        },
        {
          "internalType": "address",
          "name": "LSP7Address",
          "type": "address"
        },
        {
          "internalType": "uint256",
          "name": "LSP7Amount",
          "type": "uint256"
        }
      ],
      "name": "addLSP7Price",
      "outputs": [],
      "stateMutability": "nonpayable",
      "type": "function"
    },
    {
      "inputs": [
        {
          "internalType": "address",
          "name": "LSP8Address",
          "type": "address"
        },
        {
          "internalType": "bytes32",
          "name": "tokenId",
          "type": "bytes32"
        },
        {
          "internalType": "address",
          "name": "buyer",
          "type": "address"
        },
        {
          "internalType": "string",
          "name": "tradeUrl",
          "type": "string"
        }
      ],
      "name": "buyDigitalLSP8WithFiat",
      "outputs": [],
      "stateMutability": "payable",
      "type": "function"
    },
    {
      "inputs": [
        {
          "internalType": "address",
          "name": "LSP8Address",
          "type": "address"
        },
        {
          "internalType": "bytes32",
          "name": "tokenId",
          "type": "bytes32"
        },
        {
          "internalType": "string",
          "name": "tradeUrl",
          "type": "string"
        }
      ],
      "name": "buyDigitalLSP8WithLYX",
      "outputs": [],
      "stateMutability": "payable",
      "type": "function"
    },
    {
      "inputs": [
        {
          "internalType": "address",
          "name": "LSP8Address",
          "type": "address"
        },
        {
          "internalType": "address",
          "name": "buyer",
          "type": "address"
        },
        {
          "internalType": "bytes32",
          "name": "tokenId",
          "type": "bytes32"
        },
        {
          "internalType": "string",
          "name": "tradeUrl",
          "type": "string"
        }
      ],
      "name": "buyLSP8WithFiat",
      "outputs": [],
      "stateMutability": "payable",
      "type": "function"
    },
    {
      "inputs": [
        {
          "internalType": "address",
          "name": "LSP8Address",
          "type": "address"
        },
        {
          "internalType": "bytes32",
          "name": "tokenId",
          "type": "bytes32"
        },
        {
          "internalType": "address",
          "name": "LSP7Address",
          "type": "address"
        }
      ],
      "name": "buyLSP8WithLSP7",
      "outputs": [],
      "stateMutability": "nonpayable",
      "type": "function"
    },
    {
      "inputs": [
        {
          "internalType": "address",
          "name": "LSP8Address",
          "type": "address"
        },
        {
          "internalType": "bytes32",
          "name": "tokenId",
          "type": "bytes32"
        },
        {
          "internalType": "string",
          "name": "tradeUrl",
          "type": "string"
        }
      ],
      "name": "buyLSP8WithLYX",
      "outputs": [],
      "stateMutability": "payable",
      "type": "function"
    },
    {
      "inputs": [
        {
          "internalType": "address",
          "name": "LSP8Address",
          "type": "address"
        },
        {
          "internalType": "bytes32",
          "name": "tokenId",
          "type": "bytes32"
        },
        {
          "internalType": "address",
          "name": "LSP7Address",
          "type": "address"
        },
        {
          "internalType": "uint256",
          "name": "LSP7Amount",
          "type": "uint256"
        }
      ],
      "name": "changeLSP7Price",
      "outputs": [],
      "stateMutability": "nonpayable",
      "type": "function"
    },
    {
      "inputs": [
        {
          "internalType": "address",
          "name": "LSP8Address",
          "type": "address"
        },
        {
          "internalType": "bytes32",
          "name": "tokenId",
          "type": "bytes32"
        },
        {
          "internalType": "uint256",
          "name": "LYXAmount",
          "type": "uint256"
        }
      ],
      "name": "changeLYXPrice",
      "outputs": [],
      "stateMutability": "nonpayable",
      "type": "function"
    },
    {
      "inputs": [
        {
          "internalType": "bytes32",
          "name": "tradeId",
          "type": "bytes32"
        }
      ],
      "name": "confirmDigitalReceived",
      "outputs": [],
      "stateMutability": "nonpayable",
      "type": "function"
    },
    {
      "inputs": [
        {
          "internalType": "bytes32",
          "name": "tradeId",
          "type": "bytes32"
        }
      ],
      "name": "confirmDigitalReceivedFiat",
      "outputs": [],
      "stateMutability": "nonpayable",
      "type": "function"
    },
    {
      "inputs": [
        {
          "internalType": "bytes32",
          "name": "tradeId",
          "type": "bytes32"
        },
        {
          "internalType": "string",
          "name": "uid",
          "type": "string"
        },
        {
          "internalType": "bytes",
          "name": "signature",
          "type": "bytes"
        }
      ],
      "name": "confirmReceived",
      "outputs": [],
      "stateMutability": "nonpayable",
      "type": "function"
    },
    {
      "inputs": [
        {
          "internalType": "bytes32",
          "name": "tradeId",
          "type": "bytes32"
        },
        {
          "internalType": "string",
          "name": "uid",
          "type": "string"
        },
        {
          "internalType": "bytes",
          "name": "signature",
          "type": "bytes"
        }
      ],
      "name": "confirmReceivedFiat",
      "outputs": [],
      "stateMutability": "nonpayable",
      "type": "function"
    },
    {
      "inputs": [
        {
          "internalType": "bytes32",
          "name": "tradeId",
          "type": "bytes32"
        },
        {
          "internalType": "string",
          "name": "trackingId",
          "type": "string"
        }
      ],
      "name": "confirmSent",
      "outputs": [],
      "stateMutability": "nonpayable",
      "type": "function"
    },
    {
      "inputs": [
        {
          "internalType": "bytes32",
          "name": "tradeId",
          "type": "bytes32"
        }
      ],
      "name": "dissolveTrade",
      "outputs": [],
      "stateMutability": "nonpayable",
      "type": "function"
    },
    {
      "inputs": [
        {
          "internalType": "bytes32",
          "name": "tradeId",
          "type": "bytes32"
        }
      ],
      "name": "dissolveTradeFiat",
      "outputs": [],
      "stateMutability": "nonpayable",
      "type": "function"
    },
    {
      "inputs": [
        {
          "internalType": "address",
          "name": "LSP8Address",
          "type": "address"
        },
        {
          "internalType": "bytes32",
          "name": "tokenId",
          "type": "bytes32"
        }
      ],
      "name": "onSale",
      "outputs": [
        {
          "internalType": "bool",
          "name": "",
          "type": "bool"
        }
      ],
      "stateMutability": "view",
      "type": "function"
    },
    {
      "inputs": [
        {
          "internalType": "bytes32",
          "name": "tradeId",
          "type": "bytes32"
        },
        {
          "internalType": "string",
          "name": "reason",
          "type": "string"
        }
      ],
      "name": "openDispute",
      "outputs": [],
      "stateMutability": "nonpayable",
      "type": "function"
    },
    {
      "inputs": [
        {
          "internalType": "address",
          "name": "LSP8Address",
          "type": "address"
        },
        {
          "internalType": "bytes32",
          "name": "tokenId",
          "type": "bytes32"
        },
        {
          "internalType": "uint256",
          "name": "LYXAmount",
          "type": "uint256"
        },
        {
          "internalType": "string",
          "name": "listingURl",
          "type": "string"
        },
        {
          "internalType": "bool",
          "name": "_acceptFiat",
          "type": "bool"
        }
      ],
      "name": "putDigitalLSP8OnSale",
      "outputs": [],
      "stateMutability": "nonpayable",
      "type": "function"
    },
    {
      "inputs": [
        {
          "internalType": "address",
          "name": "LSP8Address",
          "type": "address"
        },
        {
          "internalType": "bytes32",
          "name": "tokenId",
          "type": "bytes32"
        },
        {
          "internalType": "uint256",
          "name": "LYXAmount",
          "type": "uint256"
        },
        {
          "internalType": "string",
          "name": "uid",
          "type": "string"
        },
        {
          "internalType": "bytes",
          "name": "signature",
          "type": "bytes"
        },
        {
          "internalType": "string",
          "name": "listingURl",
          "type": "string"
        },
        {
          "internalType": "bool",
          "name": "_acceptFiat",
          "type": "bool"
        }
      ],
      "name": "putLSP8OnSale",
      "outputs": [],
      "stateMutability": "nonpayable",
      "type": "function"
    },
    {
      "inputs": [
        {
          "internalType": "address",
          "name": "_juror",
          "type": "address"
        }
      ],
      "name": "removeJuror",
      "outputs": [],
      "stateMutability": "nonpayable",
      "type": "function"
    },
    {
      "inputs": [
        {
          "internalType": "address",
          "name": "LSP8Address",
          "type": "address"
        },
        {
          "internalType": "bytes32",
          "name": "tokenId",
          "type": "bytes32"
        }
      ],
      "name": "removeLSP8FromSale",
      "outputs": [],
      "stateMutability": "nonpayable",
      "type": "function"
    },
    {
      "inputs": [
        {
          "internalType": "bytes32",
          "name": "tradeId",
          "type": "bytes32"
        }
      ],
      "name": "resolveTrade",
      "outputs": [],
      "stateMutability": "nonpayable",
      "type": "function"
    },
    {
      "inputs": [
        {
          "internalType": "bytes32",
          "name": "tradeId",
          "type": "bytes32"
        }
      ],
      "name": "resolveTradeFiat",
      "outputs": [],
      "stateMutability": "nonpayable",
      "type": "function"
    }
  ],
  "bytecode": "0x6080346200009c57601f6200468e38819003918201601f19168301916001600160401b03831184841017620000a15780849260409485528339810103126200009c576200005a60206200005283620000b7565b9201620000b7565b6000600355600480546001600160a01b03199081166001600160a01b039384161790915560058054909116919092161790556040516145c19081620000cd8239f35b600080fd5b634e487b7160e01b600052604160045260246000fd5b51906001600160a01b03821682036200009c5756fe6080604090808252600491823610156200001857600080fd5b600091823560e01c9081630a84a4fd14620025b457508063109b0e95146200248e57806317797da8146200215e57806317d67836146200204e5780631fdba2da1462001db55780632787731e1462001bad57806331ea55961462001a9457806336654f8414620019b2578063372a387414620018455780633bd320c714620016ee5780634349509214620016875780636b1c6fe1146200158557806373199de81462000f3557806377ab9cbb1462000d625780639752c6471462000c66578063ae86c6c11462000b63578063bd2954401462000b1d578063be85078a14620009fe578063cb552b4614620009bb578063cbbdc53814620008ae578063cf7b7c42146200079a578063dbb1b1271462000602578063e568dd73146200048557909180938263e6fd738914620002075750508063f6cd25f014620001bd5763f7b17426146200016457600080fd5b34620001b95780600319360112620001b957620001b06020926001600160a01b036200018f620026bc565b16815280845282602435912060019160005201602052604060002054151590565b90519015158152f35b5080fd5b823462000204576020366003190112620002045762000200620001df620026bc565b6001600160a01b0390620001f98260055416331462002901565b1662002a9c565b5080f35b80fd5b9150916080600319360112620004815762000221620026bc565b6024356200022e620026d3565b9160643567ffffffffffffffff81116200047d57620002519036908701620027ac565b6001600160a01b03948583169687895260209060028252828a20868b528252620002836005848c200154341462002de1565b888a52898252620002b0620002aa87858d2060019160005201602052604060002054151590565b62002d95565b85835191630217b22760e41b835282015281816024818c5afa90811562000473579088918b916200043f575b501697895260028152818920858a5281528189206005015495808960035485519182918a8a8d898601976200035095899492609c9694916bffffffffffffffffffffffff199384809260601b16885260601b166014870152602886015260601b166048840152605c830152607c8201520190565b03601f19810182526200036490826200276c565b5190209762000374878762003017565b620003808787620030a4565b6200038e87838c8962003282565b83516200039b81620026ea565b8a815281858186840195169d8e8652818401968188528d825260089052209151169273ffffffffffffffffffffffffffffffffffffffff19938483541617825582600183019151168482541617905560020192511690825416179055600354620004059062002e2d565b6003555193849362000418938562002e53565b037fa37041f9bb697f01c39b05d9808a05e59e4446ddd6b00ddb93bf502515380cb391a480f35b620004649150833d85116200046b575b6200045b81836200276c565b81019062002c90565b38620002dc565b503d6200044f565b83513d8c823e3d90fd5b8680fd5b5050fd5b5034620001b95780600319360112620001b95791906001600160a01b039081620004ae620026bc565b1681526020916002835284822090602491823584528452858320918383549660028501915b888110620005a05750505050855194848682815201908193855285852090855b8181106200058b57505050856200050c9103866200276c565b85519586958187019187525180915260608601929184905b8282106200056d575050505083810383850152826060519182815201926080925b8281106200055557505050500390f35b83518552869550938101939281019260010162000545565b83518116855288975093860193928601926001919091019062000524565b825484529287019260019283019201620004f3565b620005c585620005b683899b9a9c9d996200299b565b90549060031b1c168462002ebf565b606051821015620005f05790620005e49160808260051b015262002e2d565b989795969498620004d3565b848a603285634e487b7160e01b835252fd5b50829034620007965760a0366003190112620007965762000622620026bc565b91602435916044359360643567ffffffffffffffff81116200047d576200064d9036908501620027ac565b9160843591821515928381036200079157886001600160a01b03968784169789865192630217b22760e41b84528301526020826024818c5afa9182156200078757620007539795620007176000966200070f8f958f8f9c7f549017a7bd766b7b1fe1351de08bf426efe9d224831ad82206ab54edb873fcb09f9d9a819b620006ec6200073f9c6200070896869c859262000762575b5016331462002cb1565b8152806020522060019160005201602052604060002054151590565b1562002cfd565b838362003059565b6001600160a01b03166000526002602052604060002090600052602052600560406000200155565b805194859460608652606086019062002d6e565b9260208501528301520390a480f35b6200077f91925060203d81116200046b576200045b81836200276c565b9038620006e2565b86513d85823e3d90fd5b600080fd5b8280fd5b508234620007965760209081600319360112620008a057838382359233835260078552620007cd82842054151562002f46565b83835260088552818320825190620007e582620026ea565b60026001600160a01b039182815416845282600182015416898501520154169283910152813b15620007965782918291875180948193631df7c51d60e11b83525af18015620008a45762000888575b5050827f982bf5a7c13f6a3221eb651dceff4ed35dc4170500238cb81df4819563ea0905837feb2c8525f99d3bfc1e2285827071185c43ceec646ea36a1549e893e30a4411329551848152a151908152a180f35b62000893906200271d565b620008a057838562000834565b8380fd5b85513d84823e3d90fd5b5082903462000796576020366003190112620007965782818335936001600160a01b03620008e28160055416331462002901565b8584526008602052828420906002845192620008fe84620026ea565b8281541684528260018201541660208501520154169283910152813b15620007965782918291855180948193635c4b168160e11b83525af18015620009b15762000999575b507fa8aca61d4cf0c4563a5827579f48ccb52d9c08a1da9abbb95eb85ef7518f5efb602084847f383ab61835ef171bf38d73022941ddcab99ceb1f013160359750ac5f8f8e4f14838251848152a151908152a180f35b620009a4906200271d565b6200079657828462000943565b83513d84823e3d90fd5b823462000204576020366003190112620002045762000200620009dd620026bc565b6001600160a01b0390620009f78260055416331462002901565b16620029b4565b508234620007965760209081600319360112620008a05783838235923383526007855262000a3182842054151562002f46565b8383526008855281832082519062000a4982620026ea565b60026001600160a01b039182815416845282600182015416898501520154169283910152813b156200079657829182918751809481937fdc3c7cfd0000000000000000000000000000000000000000000000000000000083525af18015620008a45762000b05575b5050827fef627d0e66434f22f9f3c4ac2a0ef3ab44f42e720a9b663a1e38d990b943faee837f79678b3d85ae9bad5acc158cf7b7d56e8b4edee4a39eaa58ec9d5a95145c31af9551848152a151908152a180f35b62000b10906200271d565b620008a057838562000ab1565b5034620001b95780600319360112620001b9576005816020936001600160a01b0362000b48620026bc565b16815260028552818120602435825285522001549051908152f35b5082903462000796578262000b7836620028b3565b90828496939652600860205262000bd98585209286519262000b9a84620026ea565b62000bcf6001600160a01b03958681541686528987600281600185015416938460208b01520154169601958652331462002f46565b84865416620033ca565b511690813b156200079657829182918551809481937f86d1a69f0000000000000000000000000000000000000000000000000000000083525af18015620009b15762000c4e575b507f383ab61835ef171bf38d73022941ddcab99ceb1f013160359750ac5f8f8e4f146020848451908152a180f35b62000c59906200271d565b6200079657828462000c20565b5082903462000796578262000c7b36620028b3565b9062000cdf6001600160a01b039693969262000c9d8460055416331462002901565b8786526008602052868620928785600282519662000cbb88620026ea565b828154168852826001820154166020890152015416940193845284865416620033ca565b511690813b15620007965782918291855180948193635c4b168160e11b83525af18015620009b1576200099957507fa8aca61d4cf0c4563a5827579f48ccb52d9c08a1da9abbb95eb85ef7518f5efb602084847f383ab61835ef171bf38d73022941ddcab99ceb1f013160359750ac5f8f8e4f14838251848152a151908152a180f35b509134620001b95762000d753662002878565b936001600160a01b039391939081831690885191630217b22760e41b835285828401526020928381602481855afa90811562000f2b579062000dc4918b9162000f09575b508516331462002cb1565b80895288835262000deb620002aa878c8c2060019160005201602052604060002054151590565b80895260028352898920868a52835262000e1b8a8a20948816809560019160005201602052604060002054151590565b62000e7b57976000819a62000e7195946002948c62000e789d86528683528386208b8752835262000e4f8885882062002b93565b5085528582528285208a86528252868386209552840190528b20550162002b93565b5062002f8e565b80f35b5060a49189519162461bcd60e51b8352820152604460248201527f546865726520616c7265616479206578697374732061206275796f757420707260448201527f69636520696e207468697320746f6b656e2e2054727920746f206368616e676560648201527f2069742e000000000000000000000000000000000000000000000000000000006084820152fd5b62000f249150853d87116200046b576200045b81836200276c565b3862000db9565b8b513d8c823e3d90fd5b50903462000204576060366003190112620002045762000f54620026bc565b9260249384359162000f65620026d3565b85517f70a08231000000000000000000000000000000000000000000000000000000008152338382015296906020906001600160a01b03808216838b8681845afa80156200157b578a8a89819d9e8c9d9c9b9c946200152c575b5062000fe392879287600293169c8d8252838b528282209082528a52200162002ebf565b1015620014c557868a52600284528a8a20898b5284528a8a2060009182526001016020526040902054156200145e5785895288835262001039620002aa898c8c2060019160005201602052604060002054151590565b895195630217b22760e41b8752888688015283878681845afa96871562000f2b578b8a8a94938d93849b62001420575b5092602892620010ad82936200114e989796845260028b528284208185528b526200109a8a60028587200162002ebf565b97620010a7828262003017565b620030a4565b8051620010ba8162002732565b8281528151620010ca81620026ea565b8581527f322c627974657329000000000000000000000000000000000000000000000000838c8301927f617574686f72697a654f70657261746f7228616464726573732c627974657333845201526001600160e01b0319958691201691519788918b8301938452308d84015288604484015260606064840152608483019062002d6e565b039662001164601f19988981018352826200276c565b519082895af162001174620034f4565b81620013eb575b5015620013835786620012bd8d9694958f94620012b06337dc019b60e11b8a998f938d948c996200122f87620012228c8f7f5d4750030310507a00ed34b9c56808c5423b741a733df02978ef34f07a4b87d78151926bffffffffffffffffffffffff19803360601b16878601528960601b1660348501528a60488501526048845262001207846200274f565b82519b8c968701528501526044840152606483019062002d6e565b038981018752866200276c565b602c8c6b2c626f6f6c2c62797465732960a01b8151916200125083620026ea565b8383528a8301927f7472616e7366657228616464726573732c616464726573732c75696e743235368452015220169a5198899687019b8c523390870152166044850152606484015286608484015260a060a484015260c483019062002d6e565b039081018352826200276c565b51925af1620012cb620034f4565b816200134e575b5015620012e8578662000e788733878962003282565b875162461bcd60e51b8152928301526036908201527f5472616e7366657248656c7065723a3a736166655472616e736665724c53503760448201527f3a204c535037207472616e73666572206661696c6564000000000000000000006064820152608490fd5b8051801592508390831562001368575b50505038620012d2565b6200137a935082018101910162003708565b3882816200135e565b608488602b8f898b91519362461bcd60e51b85528401528201527f5472616e7366657248656c7065723a3a73616665417070726f76653a2061707060448201527f726f7665206661696c65640000000000000000000000000000000000000000006064820152fd5b8051801592508890831562001405575b505050386200117b565b62001417935082018101910162003708565b388781620013fb565b84926200114e979695929c50620010ad906200144e602896938c8d3d106200046b576200045b81836200276c565b9d93509395969750509262001069565b608485602286868e519362461bcd60e51b85528401528201527f53656c6c657220646f6573206e6f7420616363657074207468697320746f6b6560448201527f6e2e0000000000000000000000000000000000000000000000000000000000006064820152fd5b608486602987878f519362461bcd60e51b85528401528201527f53656e64657220646f65736e2774206861766520656e6f75676820746f6b656e60448201527f2062616c616e63652e00000000000000000000000000000000000000000000006064820152fd5b9495969798999a50505050508481813d831162001573575b6200155081836200276c565b810103126200156f575188969594939291908b8b8a62000fe362000fbf565b8980fd5b503d62001544565b8a513d8b823e3d90fd5b508290346200079657806003193601126200079657620015a4620026bc565b916024356001600160a01b03918285169282855192630217b22760e41b8452830152602082602481875afa9182156200167d5795620016166200164a9385937fd4709ef4f6187863d85e1cfdd4716313b460856d39dc2390b183f15fc1fb2bd9998b9262001658575016331462002cb1565b848852876020526200163e620002aa83888b2060019160005201602052604060002054151590565b620010a7828262003017565b82519182526020820152a180f35b6200167591925060203d81116200046b576200045b81836200276c565b908b620006e2565b85513d89823e3d90fd5b508290346200079657602036600319011262000796578282359283825260086020528282208351620016b981620026ea565b62000bd96001600160a01b03928381541683528684600281600185015416938460208801520154169301928352331462002f46565b509134620001b957620017013662002878565b936001600160a01b0393919380831690885191630217b22760e41b835285848401526020928381602481855afa90811562000f2b57620017a693929162001755918c9162001823575b508316331462002cb1565b808a528984526200177c620002aa888d8d2060019160005201602052604060002054151590565b895260028352898920868a5283528989209087169060019160005201602052604060002054151590565b15620017bb57505062000e7894955062002f8e565b6084925087519162461bcd60e51b8352820152603760248201527f5468657265206973206e6f206275796f757420707269636520696e207468697360448201527f20746f6b656e2e2054727920746f20616464206f6e652e0000000000000000006064820152fd5b6200183e9150863d88116200046b576200045b81836200276c565b386200174a565b50829034620007965760e0366003190112620007965762001865620026bc565b9160243591604435936064359167ffffffffffffffff92838111620019ae57620018939036908601620027ac565b91608435848111620019aa57620018ae9036908701620027ac565b9360a435908111620019aa57620018c99036908701620027ac565b9360c435908115159485830362000791576001600160a01b03808516988c8a60208d60248b5180948193630217b22760e41b8352888301525afa908115620019a057966200070f8f95978f95978f997f549017a7bd766b7b1fe1351de08bf426efe9d224831ad82206ab54edb873fcb09f9d9a99620007539f9d97620007088a60019f8f90936200073f9f620006ec620007179d620019759784916200197d575b508916331462002cb1565b5416620033ca565b62001999915060203d81116200046b576200045b81836200276c565b386200196a565b89513d84823e3d90fd5b8880fd5b8780fd5b5082903462000796576020366003190112620007965782818335933383526007602052620019e582842054151562002f46565b8483526008602052818320825190620019fe82620026ea565b60026001600160a01b03918281541684528260018201541660208501520154169283910152813b15620007965782918291855180948193631df7c51d60e11b83525af18015620009b15762001a7c575b507f982bf5a7c13f6a3221eb651dceff4ed35dc4170500238cb81df4819563ea09056020848451908152a180f35b62001a87906200271d565b6200079657828462001a4e565b50823462000796578262001aa836620027f9565b9290938483526008602052808320815162001ac381620026ea565b62001b036001600160a01b0392838154168084528585600281600186015416948560208901520154169401938452331490811562001ba2575b5062002f46565b511691823b15620008a057839283918351809581937ff240f7c30000000000000000000000000000000000000000000000000000000083525af190811562001b99575062001b81575b505062001b599062002f6c565b907fdd06a1bb006455f79813adec3a04ac5027b2dab7d17a0ed1bda15c837b81e3d78380a380f35b62001b8c906200271d565b6200079657828462001b4c565b513d84823e3d90fd5b905033148a62001afc565b50829062001bbb3662002830565b90936001600160a01b03928381169485885260209260028452818920888a52845262001bef6005838b200154341462002de1565b86895288845262001c16620002aa89848c2060019160005201602052604060002054151590565b87825191630217b22760e41b835282015283816024818a5afa90811562001dab579086918a9162001d89575b5016958852600283528088208789528352808820600501549260035482518089848201938c888a3362001cb495899492609c9694916bffffffffffffffffffffffff199384809260601b16885260601b166014870152602886015260601b166048840152605c830152607c8201520190565b03601f198101825262001cc890826200276c565b5190209562001cd8898562003017565b62001ce48985620030a4565b62001cf289338a8762003282565b62001cfe858962003722565b82519062001d0c82620026ea565b88825282820191338352848101938c8552898d526008905281858d209151169273ffffffffffffffffffffffffffffffffffffffff1993848354161782558260018301915116848254161790556002019251169082541617905560035462001d749062002e2d565b60035551928392339762000418938562002e53565b62001da49150853d87116200046b576200045b81836200276c565b8a62001c42565b82513d8b823e3d90fd5b508262001dc23662002830565b929193906001600160a01b038086169485885260209360028552808920848a52855262001df76005828b200154341462002de1565b86895288855262001e1e620002aa85838c2060019160005201602052604060002054151590565b8051630217b22760e41b8152848782015285816024818b5afa90811562002044579084918b9162002022575b501696895260028552808920848a5285526005818a20015494878562001ed18b62001ec260035487519485938d8986019833908a9492609c9694916bffffffffffffffffffffffff199384809260601b16885260601b166014870152602886015260601b166048840152605c830152607c8201520190565b03601f1981018352826200276c565b51902096825190610dd38083019183831067ffffffffffffffff8411176200200f57509162001f398982938f958f8f91908d91620037b988396001600160a01b0390811684526020840191909152166040820152336060820152608081019190915260a00190565b039082f08015620020035785169462001f53878c62003017565b8a87878c62001f638385620030a4565b62001f6e936200310e565b62001f7a888762003722565b835162001f8781620026ea565b8a8152818585830194338652818401968a88528d825260089052209151169273ffffffffffffffffffffffffffffffffffffffff1993848354161782558260018301915116848254161790556002019251169082541617905560035462001fee9062002e2d565b60035551938493339862000418948662002e88565b508251903d90823e3d90fd5b8d6041602492634e487b7160e01b835252fd5b6200203d9150873d89116200046b576200045b81836200276c565b8b62001e4a565b82513d8c823e3d90fd5b5082346200079657826200206236620027f9565b929093848352600860205280832081516200207d81620026ea565b620020b26001600160a01b03928484600281845416938487528260018201541660208801520154169301928352331462002f46565b5116803b15620008a057602092849183519485927f768896e5000000000000000000000000000000000000000000000000000000008452830152818381620020fe602482018b62002d6e565b03925af190811562001b99575062002146575b50506200211e9062002f6c565b907fd4f38c7bc9ecd1e2dc32b792412b891ef2d858ff73fa89dad9c1931171e6c1e08380a380f35b62002151906200271d565b6200079657828462002111565b50826080366003190112620007965762002177620026bc565b916024356001600160a01b0393848216948583036200079157604435926064359467ffffffffffffffff958681116200156f57620021b99036908901620027ac565b9289818616988982526200222e8885602094600286528181208382528652620021ea60058383200154341462002de1565b8d815280865262002211620002aa8484842060019160005201602052604060002054151590565b8d8152600186522060019160005201602052604060002054151590565b156200244d57620022458360055416331462002901565b8351630217b22760e41b815281810189905282816024818e5afa908d8215620024425790859262002420575b5016998c5260028252838c20888d5282526005848d200154948a89620022e88a62001ec26003548a519485938d898c8701998a9492609c9694916bffffffffffffffffffffffff199384809260601b16885260601b166014870152602886015260601b166048840152605c830152607c8201520190565b51902099855192610dd39081850192858410908411176200240d5750878f9594938e8d8d87966200234b96620037b9893991909360809396959460a08401976001600160a01b039384809316865260208601521660408401521660608201520152565b039083f080156200240357928a81868c958f958c848f9d9c9b9a169c8d8762002375838562003017565b62002380936200310e565b8251946200238e86620026ea565b8552808501968752828501978c8952825260089052209151169273ffffffffffffffffffffffffffffffffffffffff19938483541617825582600183019151168482541617905560020192511690825416179055600354620023f09062002e2d565b6003555194859462000418948662002e88565b84513d84823e3d90fd5b8f6041602492634e487b7160e01b835252fd5b6200243b9150843d86116200046b576200045b81836200276c565b8e62002271565b8651903d90823e3d90fd5b60649184519162461bcd60e51b8352820152601b60248201527f53656c6c657220646f6573206e6f7420616363657074206669617400000000006044820152fd5b50829034620007965760203660031901126200079657828235923382526007602052620024c083832054151562002f46565b838252600860205282808320815190620024da82620026ea565b60026001600160a01b03918281541684528260018201541660208501520154169182910152803b15620007965782918451809481937f11da60b40000000000000000000000000000000000000000000000000000000083525af18015620025aa576200256f575b507fef627d0e66434f22f9f3c4ac2a0ef3ab44f42e720a9b663a1e38d990b943faee9160209151908152a180f35b9160209193620025a07fef627d0e66434f22f9f3c4ac2a0ef3ab44f42e720a9b663a1e38d990b943faee946200271d565b9391509162002541565b82513d86823e3d90fd5b90508334620008a0576060366003190112620008a05783620025d5620026bc565b92602435926001600160a01b03918483871692630217b22760e41b83528201526020928382602481865afa918215620026b2576005949262000e78999492620026299288926200268e575016331462002cb1565b80855284825262002650620002aa8785882060019160005201602052604060002054151590565b845260028152818420908585525282200155604435916001600160a01b03166000526002602052604060002090600052602052600560406000200155565b620026aa919250853d87116200046b576200045b81836200276c565b908c620006e2565b88513d87823e3d90fd5b600435906001600160a01b03821682036200079157565b604435906001600160a01b03821682036200079157565b6060810190811067ffffffffffffffff8211176200270757604052565b634e487b7160e01b600052604160045260246000fd5b67ffffffffffffffff81116200270757604052565b6020810190811067ffffffffffffffff8211176200270757604052565b6080810190811067ffffffffffffffff8211176200270757604052565b90601f8019910116810190811067ffffffffffffffff8211176200270757604052565b67ffffffffffffffff81116200270757601f01601f191660200190565b81601f820112156200079157803590620027c6826200278f565b92620027d660405194856200276c565b828452602083830101116200079157816000926020809301838601378301015290565b9060406003198301126200079157600435916024359067ffffffffffffffff821162000791576200282d91600401620027ac565b90565b606060031982011262000791576004356001600160a01b0381168103620007915791602435916044359067ffffffffffffffff821162000791576200282d91600401620027ac565b608090600319011262000791576001600160a01b03600435818116810362000791579160243591604435908116810362000791579060643590565b606060031982011262000791576004359167ffffffffffffffff602435818111620007915783620028e791600401620027ac565b9260443591821162000791576200282d91600401620027ac565b156200290957565b606460405162461bcd60e51b815260206004820152600d60248201527f4143434553532044454e494544000000000000000000000000000000000000006044820152fd5b600654811015620029855760066000527ff652222313e28459528d920b65115c16c04f3efc82aaedc97be59f3f377c0d3f0190600090565b634e487b7160e01b600052603260045260246000fd5b8054821015620029855760005260206000200190600090565b60008181526007602052604081205462002a36576006546801000000000000000081101562002a2257908262002a0e620029f7846001604096016006556200294d565b819391549060031b91821b91600019901b19161790565b905560065492815260076020522055600190565b602482634e487b7160e01b81526041600452fd5b905090565b600082815260018201602052604090205462002a95578054906801000000000000000082101562002707578262002a7e620029f78460018096018555846200299b565b905580549260005201602052604060002055600190565b5050600090565b600081815260076020526040812054909190801562002b8e576000199080820181811162002b7a576006549083820191821162002b665781810362002b2c575b505050600654801562002b185781019062002af7826200294d565b909182549160031b1b19169055600655815260076020526040812055600190565b602484634e487b7160e01b81526031600452fd5b62002b4f62002b3f620029f7936200294d565b90549060031b1c9283926200294d565b905584526007602052604084205538808062002adc565b602486634e487b7160e01b81526011600452fd5b602485634e487b7160e01b81526011600452fd5b505090565b9060018201906000928184528260205260408420549081151560001462002c89576000199180830181811162002c755782549084820191821162002c615781810362002c26575b5050508054801562002c125782019162002bf583836200299b565b909182549160031b1b191690555582526020526040812055600190565b602486634e487b7160e01b81526031600452fd5b62002c4b62002c3a620029f793866200299b565b90549060031b1c928392866200299b565b9055865284602052604086205538808062002bda565b602488634e487b7160e01b81526011600452fd5b602487634e487b7160e01b81526011600452fd5b5050505090565b908160209103126200079157516001600160a01b0381168103620007915790565b1562002cb957565b606460405162461bcd60e51b815260206004820152601d60248201527f53656e64657220646f65736e2774206f776e2074686973204c5350382e0000006044820152fd5b1562002d0557565b606460405162461bcd60e51b815260206004820152601060248201527f4c535038206973206f6e2073616c652e000000000000000000000000000000006044820152fd5b60005b83811062002d5d5750506000910152565b818101518382015260200162002d4c565b9060209162002d898151809281855285808601910162002d49565b601f01601f1916010190565b1562002d9d57565b606460405162461bcd60e51b815260206004820152601460248201527f4c535038206973206e6f74206f6e2073616c652e0000000000000000000000006044820152fd5b1562002de957565b606460405162461bcd60e51b815260206004820152601a60248201527f596f75206469646e27742073656e6420656e6f756768204c59580000000000006044820152fd5b600019811462002e3d5760010190565b634e487b7160e01b600052601160045260246000fd5b909260a0926001600160a01b036200282d96956000855216602084015260408301526060820152816080820152019062002d6e565b91926200282d95949160a0946001600160a01b03809216855216602084015260408301526060820152816080820152019062002d6e565b906001600160a01b0316806000526002820160205260406000205491818315918262002f22575b505062002ef1575090565b602490604051907f02b566860000000000000000000000000000000000000000000000000000000082526004820152fd5b62002f3d925060019160005201602052604060002054151590565b15813862002ee6565b1562002f4e57565b604460405162461bcd60e51b81526020600482015260006024820152fd5b62002f869060206040519282848094519384920162002d49565b810103902090565b9162002fdc9360406002936001600160a01b0390816000971687528560205282872090875260205281862093169462002fc8868562002a3b565b508581526004840160205220550162002a3b565b50565b8054906000908181558262002ff357505050565b815260208120918201915b8281106200300b57505050565b81815560010162002ffe565b6001600160a01b031660005260026020526040600020906000526020526000600560408220620030478162002fdf565b620030556002820162002fdf565b0155565b6001600160a01b0360019116928360005260006020526200307f83604060002062002a3b565b501515146200308c575050565b62002fdc916000526001602052604060002062002a3b565b6001600160a01b03169060009180835282602052620030c7826040852062002b93565b508083526001602052620030ee826040852060019160005201602052604060002054151590565b620030f857505050565b8260409162002fdc945260016020522062002b93565b909260008094620031c6829562001ec26200312a828562003339565b6001600160e01b0319602c6040516200314381620026ea565b8181526b2c626f6f6c2c62797465732960a01b604060208301927f7472616e7366657228616464726573732c616464726573732c627974657333328452015220169660405195869460208601998a526001600160a01b03809216602487015216604485015260648401526001608484015260a060a484015260c483019062002d6e565b51925af1620031d4620034f4565b816200324e575b5015620031e457565b608460405162461bcd60e51b815260206004820152603660248201527f5472616e7366657248656c7065723a3a736166655472616e736665724c53503860448201527f3a204c535038207472616e73666572206661696c6564000000000000000000006064820152fd5b805180159250821562003265575b505038620031db565b6200327a925060208091830101910162003708565b38806200325c565b909260008094620031c6829562001ec26200329e828562003339565b6001600160e01b0319602c604051620032b781620026ea565b8181526b2c626f6f6c2c62797465732960a01b604060208301927f7472616e7366657228616464726573732c616464726573732c627974657333328452015220169660405195869460208601998a526001600160a01b038092166024870152166044850152606484015285608484015260a060a484015260c483019062002d6e565b62001ec2916200282d91604051916bffffffffffffffffffffffff19809260601b16602084015260601b16603482015260016048820152604881526200337f816200274f565b6040519283916337dc019b60e11b60208401527f5d4750030310507a00ed34b9c56808c5423b741a733df02978ef34f07a4b87d7602484015260406044840152606483019062002d6e565b60206001600160a01b03916004604051809481937f8da5cb5b000000000000000000000000000000000000000000000000000000008352165afa928315620034e857630b135d3f60e11b936001600160e01b0319936200349093600092620034c3575b5060405162003486603c8260208101947f19457468657265756d205369676e6564204d6573736167653a0a323200000000865262003475815180926020868601910162002d49565b810103601c8101845201826200276c565b5190209062003529565b16036200349957565b60046040517f5f0d7f86000000000000000000000000000000000000000000000000000000008152fd5b620034e091925060203d81116200046b576200045b81836200276c565b90386200342d565b6040513d6000823e3d90fd5b3d1562003524573d9062003508826200278f565b916200351860405193846200276c565b82523d6000602084013e565b606090565b9091813b15620035c95760009182916040516200356c8162001ec26020820194630b135d3f60e11b998a8752602484015260406044840152606483019062002d6e565b51915afa6200357a620034f4565b81620035bc575b816200359f575b5015620035925790565b506001600160e01b031990565b905060208180518101031262000791576020015181143862003588565b8051602014915062003581565b620035d5919262003636565b506004819392931015620036205762003612576001600160a01b039182169116036200360657630b135d3f60e11b90565b6001600160e01b031990565b50506001600160e01b031990565b634e487b7160e01b600052602160045260246000fd5b81519190604183036200366a576200366392506020820151906060604084015193015160001a9062003675565b9192909190565b505060009160029190565b91907f7fffffffffffffffffffffffffffffff5d576e7357a4501ddfe92f46681b20a08411620036fc57926020929160ff608095604051948552168484015260408301526060820152600092839182805260015afa15620036f05780516001600160a01b03811615620036e757918190565b50809160019190565b604051903d90823e3d90fd5b50505060009160039190565b908160209103126200079157518015158103620007915790565b6000808093819382604051620037388162002732565b525af162003745620034f4565b50156200374e57565b608460405162461bcd60e51b815260206004820152603460248201527f5472616e7366657248656c7065723a3a736166655472616e736665724c59583a60448201527f204c5958207472616e73666572206661696c65640000000000000000000000006064820152fdfe6080346100d157601f610dd338819003918201601f19168301916001600160401b038311848410176100d65780849260a0946040528339810103126100d157610047816100ec565b9060208101519061005a604082016100ec565b906080610069606083016100ec565b91015192600160005560018060a01b039283918260018060a01b0319971687600254161760025560035516846004541617600455168260055416176005554260075560ff196009541660095560065533906001541617600155604051610cd290816101018239f35b600080fd5b634e487b7160e01b600052604160045260246000fd5b51906001600160a01b03821682036100d15756fe608060409080825260049081361015610020575b505050361561001e57005b005b600092833560e01c9182630ae57b1d1461073f5750816311da60b41461071857816312065fe0146106f95781633bef8a3a146106c05781636234216d14610680578163768896e51461040d578163772ebf28146103c457816383dc3b0f1461036057816386d1a69f1461026c57508063b8962d02146101e7578063dc3c7cfd146101a9578063ea8a1af0146101035763f240f7c3146100bf5780610013565b346100ff57816003193601126100ff576100e56001600160a01b03600154163314610891565b6100ed610915565b60ff1960095416176009556001815580f35b5080fd5b5090346101a657806003193601126101a6576001600160a01b0361012c81600154163314610891565b610134610915565b60ff6009541660068110156101935761017f92936101556101729215610990565b8280600254169154166003549061016a6108dc565b923090610a0b565b6005541660065490610bf6565b600360ff1960095416176009556001815580f35b602483602186634e487b7160e01b835252fd5b80fd5b82346101a657806003193601126101a6576101d06001600160a01b03600154163314610891565b6101d8610915565b6101e0610950565b6001815580f35b5090806003193601126101a65760ff6009541660068110156102595761020d9015610846565b6102456001600160a01b0361022781600154163314610891565b61022f610915565b806002541690600554166003549061016a6108dc565b600260ff1960095416176009556001815580f35b506021602492634e487b7160e01b835252fd5b8383816003193601126100ff5760ff60095416600681101561034d576102929015610846565b6001600160a01b03906102aa82600154163314610891565b6102b2610915565b81600554168032036102e457906102d983926102459460025416906003549061016a6108dc565b541660065490610bf6565b608482602087519162461bcd60e51b8352820152602e60248201527f4f6e6c7920746865206275796572206861732074686520726967687420746f2060448201527f66696e616c697a652074726164650000000000000000000000000000000000006064820152fd5b602483602184634e487b7160e01b835252fd5b8284346101a657806003193601126101a6576001600160a01b039161038a83600154163314610891565b610392610915565b60ff6009541692600684101561034d576103b061017f939415610990565b80600254169154166003549061016a6108dc565b5050346100ff57816003193601126100ff576103f9906001600160a01b036103f181600154163314610891565b6103b0610915565b600560ff1960095416176009556001815580f35b839150346100ff576020928360031936011261067c5780359367ffffffffffffffff918286116106785736602387011215610678578581013561044f8161082a565b9661045c86519889610808565b8188523660248383010111610674578187926024869301838b0137880101526001600160a01b0393600194610495818754163314610891565b61049d610915565b82541632036106335750855192831161062057600a54908482811c92168015610616575b838310146106035750601f811161059e575b5080601f831160011461051d5750839482939492610512575b5050600019600383901b1c191690821b17600a555b8060ff196009541617600955815580f35b0151905084806104ec565b600a8552601f198316957fc65a7bb8d6351c1cf70c95a316cc6a92839c986682d98bc35f958f4883f9d2a8929186905b888210610587575050838596971061056e575b505050811b01600a55610501565b015160001960f88460031b161c19169055848080610560565b80878596829496860151815501950193019061054d565b600a85527fc65a7bb8d6351c1cf70c95a316cc6a92839c986682d98bc35f958f4883f9d2a8601f840160051c8101918385106105f9575b601f0160051c019084905b8281106105ee5750506104d3565b8681550184906105e0565b90915081906105d5565b856022602492634e487b7160e01b835252fd5b91607f16916104c1565b846041602492634e487b7160e01b835252fd5b91606492519162461bcd60e51b8352820152601d60248201527f4f6e6c79207468652053656c6c657220686173207468652072696768740000006044820152fd5b8680fd5b8480fd5b8280fd5b839150346100ff57816003193601126100ff5760ff6009541690519160068210156106ad57602083838152f35b80602185634e487b7160e01b6024945252fd5b5050346100ff57816003193601126100ff576103f9906101726001600160a01b03916106f183600154163314610891565b610155610915565b8390346100ff57816003193601126100ff576020906006549051908152f35b83346101a657806003193601126101a6576101d06001600160a01b03600154163314610891565b8385913461067c578260031936011261067c578061075d85926107d6565b36903782519183830183811067ffffffffffffffff8211176107c35784526005546001600160a01b03908116845291548216602080850191909152845193909190845b600283106107ac578686f35b8380600192878551168152019201920191906107a0565b506041602492634e487b7160e01b835252fd5b6040810190811067ffffffffffffffff8211176107f257604052565b634e487b7160e01b600052604160045260246000fd5b90601f8019910116810190811067ffffffffffffffff8211176107f257604052565b67ffffffffffffffff81116107f257601f01601f191660200190565b1561084d57565b606460405162461bcd60e51b815260206004820152601c60248201527f457363726f77206974656d20686173206265656e20636c6f7365642e000000006044820152fd5b1561089857565b606460405162461bcd60e51b815260206004820152601660248201527f53656e646572204e6f74204d61726b6574706c616365000000000000000000006044820152fd5b604051906108e9826107d6565b600282527f30780000000000000000000000000000000000000000000000000000000000006020830152565b600260005414610926576002600055565b60046040517f3ee5aeb5000000000000000000000000000000000000000000000000000000008152fd5b6109816001600160a01b03610974816002541682600554166003549061016a6108dc565b6004541660065490610bf6565b600260ff196009541617600955565b1561099757565b606460405162461bcd60e51b815260206004820152601860248201527f4974656d20416c7265616479204d61726b65642053656e7400000000000000006044820152fd5b3d15610a06573d906109ec8261082a565b916109fa6040519384610808565b82523d6000602084013e565b606090565b9293919091604051946060860186811067ffffffffffffffff8211176107f257604052602c86527fffffffff00000000000000000000000000000000000000000000000000000000602c6020977f2c626f6f6c2c627974657329000000000000000000000000000000000000000060408a8301927f7472616e7366657228616464726573732c616464726573732c6279746573333284520152201693604051938785019586526001600160a01b03809216602486015216604484015260648301526001608483015260a060a48301528051908160c48401528560005b838110610be15750505091600082610b1e60e482878583819b999a829b010152601f801991011681010360c4810184520182610808565b51925af1610b2a6109db565b81610ba3575b5015610b395750565b6084906040519062461bcd60e51b82526004820152603660248201527f5472616e7366657248656c7065723a3a736166655472616e736665724c53503860448201527f3a204c535038207472616e73666572206661696c6564000000000000000000006064820152fd5b80915051828115918215610bbc575b5050905038610b30565b8380929350010312610bdc578101518015158103610bdc57808238610bb2565b600080fd5b81818401015160e48287010152018690610ae7565b604051602081019080821067ffffffffffffffff8311176107f2576000938493848094938194604052525af1610c2a6109db565b5015610c3257565b608460405162461bcd60e51b815260206004820152603460248201527f5472616e7366657248656c7065723a3a736166655472616e736665724c59583a60448201527f204c5958207472616e73666572206661696c65640000000000000000000000006064820152fdfea2646970667358221220bd4e6e5a48eb844ebc72093b06d5ab995a70221a865f947f32dfb6e3ece843cd64736f6c63430008140033a2646970667358221220fbc88ea3e162f6058d124571bd080abd0dc4a7232a8ca37502ce786e1194dc2064736f6c63430008140033",
  "linkReferences": {},
  "deployedLinkReferences": {}
}