{
  "_format": "hh-sol-artifact-1",
  "contractName": "IdentifiablePhygitalAsset",
  "sourceName": "contracts/IdentifiablePhygitalAsset.sol",
  "abi": [
    {
      "inputs": [
        {
          "internalType": "string",
          "name": "name_",
          "type": "string"
        },
        {
          "internalType": "string",
          "name": "symbol_",
          "type": "string"
        },
        {
          "internalType": "address",
          "name": "newOwner_",
          "type": "address"
        },
        {
          "internalType": "uint256",
          "name": "maxLimit",
          "type": "uint256"
        },
        {
          "internalType": "address",
          "name": "placeholderCollection",
          "type": "address"
        }
      ],
      "stateMutability": "nonpayable",
      "type": "constructor"
    },
    {
      "inputs": [],
      "name": "AssetAlreadyRegistered",
      "type": "error"
    },
    {
      "inputs": [],
      "name": "AssetIdCannotBeZero",
      "type": "error"
    },
    {
      "inputs": [],
      "name": "ERC725Y_DataKeysValuesEmptyArray",
      "type": "error"
    },
    {
      "inputs": [],
      "name": "ERC725Y_DataKeysValuesLengthMismatch",
      "type": "error"
    },
    {
      "inputs": [],
      "name": "ERC725Y_MsgValueDisallowed",
      "type": "error"
    },
    {
      "inputs": [
        {
          "internalType": "bytes",
          "name": "storedData",
          "type": "bytes"
        }
      ],
      "name": "InvalidExtensionAddress",
      "type": "error"
    },
    {
      "inputs": [
        {
          "internalType": "bytes",
          "name": "data",
          "type": "bytes"
        }
      ],
      "name": "InvalidFunctionSelector",
      "type": "error"
    },
    {
      "inputs": [],
      "name": "LSP4TokenNameNotEditable",
      "type": "error"
    },
    {
      "inputs": [],
      "name": "LSP4TokenSymbolNotEditable",
      "type": "error"
    },
    {
      "inputs": [],
      "name": "LSP8CannotSendToAddressZero",
      "type": "error"
    },
    {
      "inputs": [],
      "name": "LSP8CannotSendToSelf",
      "type": "error"
    },
    {
      "inputs": [],
      "name": "LSP8CannotUseAddressZeroAsOperator",
      "type": "error"
    },
    {
      "inputs": [],
      "name": "LSP8CappedSupplyCannotMintOverCap",
      "type": "error"
    },
    {
      "inputs": [],
      "name": "LSP8CappedSupplyRequired",
      "type": "error"
    },
    {
      "inputs": [],
      "name": "LSP8InvalidTransferBatch",
      "type": "error"
    },
    {
      "inputs": [
        {
          "internalType": "bytes32",
          "name": "tokenId",
          "type": "bytes32"
        }
      ],
      "name": "LSP8NonExistentTokenId",
      "type": "error"
    },
    {
      "inputs": [
        {
          "internalType": "address",
          "name": "operator",
          "type": "address"
        },
        {
          "internalType": "bytes32",
          "name": "tokenId",
          "type": "bytes32"
        }
      ],
      "name": "LSP8NonExistingOperator",
      "type": "error"
    },
    {
      "inputs": [
        {
          "internalType": "bytes32",
          "name": "tokenId",
          "type": "bytes32"
        },
        {
          "internalType": "address",
          "name": "caller",
          "type": "address"
        }
      ],
      "name": "LSP8NotTokenOperator",
      "type": "error"
    },
    {
      "inputs": [
        {
          "internalType": "address",
          "name": "tokenOwner",
          "type": "address"
        },
        {
          "internalType": "bytes32",
          "name": "tokenId",
          "type": "bytes32"
        },
        {
          "internalType": "address",
          "name": "caller",
          "type": "address"
        }
      ],
      "name": "LSP8NotTokenOwner",
      "type": "error"
    },
    {
      "inputs": [
        {
          "internalType": "address",
          "name": "tokenReceiver",
          "type": "address"
        }
      ],
      "name": "LSP8NotifyTokenReceiverContractMissingLSP1Interface",
      "type": "error"
    },
    {
      "inputs": [
        {
          "internalType": "address",
          "name": "tokenReceiver",
          "type": "address"
        }
      ],
      "name": "LSP8NotifyTokenReceiverIsEOA",
      "type": "error"
    },
    {
      "inputs": [
        {
          "internalType": "address",
          "name": "operator",
          "type": "address"
        },
        {
          "internalType": "bytes32",
          "name": "tokenId",
          "type": "bytes32"
        }
      ],
      "name": "LSP8OperatorAlreadyAuthorized",
      "type": "error"
    },
    {
      "inputs": [
        {
          "internalType": "bytes32",
          "name": "tokenId",
          "type": "bytes32"
        }
      ],
      "name": "LSP8TokenIdAlreadyMinted",
      "type": "error"
    },
    {
      "inputs": [],
      "name": "LSP8TokenOwnerCannotBeOperator",
      "type": "error"
    },
    {
      "inputs": [
        {
          "internalType": "bytes4",
          "name": "functionSelector",
          "type": "bytes4"
        }
      ],
      "name": "NoExtensionFoundForFunctionSelector",
      "type": "error"
    },
    {
      "inputs": [],
      "name": "OnlyPlaceholderCanMint",
      "type": "error"
    },
    {
      "inputs": [],
      "name": "VariantAlreadyRegistered",
      "type": "error"
    },
    {
      "inputs": [],
      "name": "VariantIdCannotBeZero",
      "type": "error"
    },
    {
      "inputs": [],
      "name": "VariantNotRegistered",
      "type": "error"
    },
    {
      "anonymous": false,
      "inputs": [
        {
          "indexed": true,
          "internalType": "bytes12",
          "name": "variantId",
          "type": "bytes12"
        },
        {
          "indexed": true,
          "internalType": "bytes12",
          "name": "assetId",
          "type": "bytes12"
        },
        {
          "indexed": true,
          "internalType": "bytes32",
          "name": "tokenId",
          "type": "bytes32"
        }
      ],
      "name": "AssetMinted",
      "type": "event"
    },
    {
      "anonymous": false,
      "inputs": [
        {
          "indexed": true,
          "internalType": "address",
          "name": "operator",
          "type": "address"
        },
        {
          "indexed": true,
          "internalType": "address",
          "name": "tokenOwner",
          "type": "address"
        },
        {
          "indexed": true,
          "internalType": "bytes32",
          "name": "tokenId",
          "type": "bytes32"
        },
        {
          "indexed": false,
          "internalType": "bytes",
          "name": "operatorNotificationData",
          "type": "bytes"
        }
      ],
      "name": "AuthorizedOperator",
      "type": "event"
    },
    {
      "anonymous": false,
      "inputs": [
        {
          "indexed": true,
          "internalType": "bytes32",
          "name": "dataKey",
          "type": "bytes32"
        },
        {
          "indexed": false,
          "internalType": "bytes",
          "name": "dataValue",
          "type": "bytes"
        }
      ],
      "name": "DataChanged",
      "type": "event"
    },
    {
      "anonymous": false,
      "inputs": [
        {
          "indexed": true,
          "internalType": "address",
          "name": "previousOwner",
          "type": "address"
        },
        {
          "indexed": true,
          "internalType": "address",
          "name": "newOwner",
          "type": "address"
        }
      ],
      "name": "OwnershipTransferred",
      "type": "event"
    },
    {
      "anonymous": false,
      "inputs": [
        {
          "indexed": false,
          "internalType": "address",
          "name": "",
          "type": "address"
        },
        {
          "indexed": false,
          "internalType": "uint256",
          "name": "",
          "type": "uint256"
        }
      ],
      "name": "Received",
      "type": "event"
    },
    {
      "anonymous": false,
      "inputs": [
        {
          "indexed": true,
          "internalType": "address",
          "name": "operator",
          "type": "address"
        },
        {
          "indexed": true,
          "internalType": "address",
          "name": "tokenOwner",
          "type": "address"
        },
        {
          "indexed": true,
          "internalType": "bytes32",
          "name": "tokenId",
          "type": "bytes32"
        },
        {
          "indexed": false,
          "internalType": "bytes",
          "name": "operatorNotificationData",
          "type": "bytes"
        }
      ],
      "name": "RevokedOperator",
      "type": "event"
    },
    {
      "anonymous": false,
      "inputs": [
        {
          "indexed": false,
          "internalType": "address",
          "name": "operator",
          "type": "address"
        },
        {
          "indexed": true,
          "internalType": "address",
          "name": "from",
          "type": "address"
        },
        {
          "indexed": true,
          "internalType": "address",
          "name": "to",
          "type": "address"
        },
        {
          "indexed": true,
          "internalType": "bytes32",
          "name": "tokenId",
          "type": "bytes32"
        },
        {
          "indexed": false,
          "internalType": "bool",
          "name": "allowNonLSP1Recipient",
          "type": "bool"
        },
        {
          "indexed": false,
          "internalType": "bytes",
          "name": "data",
          "type": "bytes"
        }
      ],
      "name": "Transfer",
      "type": "event"
    },
    {
      "anonymous": false,
      "inputs": [
        {
          "indexed": false,
          "internalType": "bytes12",
          "name": "variantId",
          "type": "bytes12"
        }
      ],
      "name": "VariantRegistered",
      "type": "event"
    },
    {
      "anonymous": false,
      "inputs": [
        {
          "indexed": false,
          "internalType": "bytes12",
          "name": "variantId",
          "type": "bytes12"
        }
      ],
      "name": "VariantUnregistered",
      "type": "event"
    },
    {
      "stateMutability": "payable",
      "type": "fallback"
    },
    {
      "inputs": [
        {
          "internalType": "address",
          "name": "operator",
          "type": "address"
        },
        {
          "internalType": "bytes32",
          "name": "tokenId",
          "type": "bytes32"
        },
        {
          "internalType": "bytes",
          "name": "operatorNotificationData",
          "type": "bytes"
        }
      ],
      "name": "authorizeOperator",
      "outputs": [],
      "stateMutability": "nonpayable",
      "type": "function"
    },
    {
      "inputs": [
        {
          "internalType": "address",
          "name": "tokenOwner",
          "type": "address"
        }
      ],
      "name": "balanceOf",
      "outputs": [
        {
          "internalType": "uint256",
          "name": "",
          "type": "uint256"
        }
      ],
      "stateMutability": "view",
      "type": "function"
    },
    {
      "inputs": [
        {
          "internalType": "bytes12",
          "name": "variantId",
          "type": "bytes12"
        }
      ],
      "name": "checkVariant",
      "outputs": [
        {
          "internalType": "bool",
          "name": "",
          "type": "bool"
        }
      ],
      "stateMutability": "view",
      "type": "function"
    },
    {
      "inputs": [
        {
          "internalType": "bytes12",
          "name": "variantId",
          "type": "bytes12"
        },
        {
          "internalType": "bytes12",
          "name": "assetId",
          "type": "bytes12"
        }
      ],
      "name": "getAssetTokenId",
      "outputs": [
        {
          "internalType": "bytes32",
          "name": "",
          "type": "bytes32"
        }
      ],
      "stateMutability": "view",
      "type": "function"
    },
    {
      "inputs": [
        {
          "internalType": "bytes32",
          "name": "dataKey",
          "type": "bytes32"
        }
      ],
      "name": "getData",
      "outputs": [
        {
          "internalType": "bytes",
          "name": "dataValue",
          "type": "bytes"
        }
      ],
      "stateMutability": "view",
      "type": "function"
    },
    {
      "inputs": [
        {
          "internalType": "bytes32[]",
          "name": "dataKeys",
          "type": "bytes32[]"
        }
      ],
      "name": "getDataBatch",
      "outputs": [
        {
          "internalType": "bytes[]",
          "name": "dataValues",
          "type": "bytes[]"
        }
      ],
      "stateMutability": "view",
      "type": "function"
    },
    {
      "inputs": [
        {
          "internalType": "bytes32",
          "name": "tokenId",
          "type": "bytes32"
        }
      ],
      "name": "getOperatorsOf",
      "outputs": [
        {
          "internalType": "address[]",
          "name": "",
          "type": "address[]"
        }
      ],
      "stateMutability": "view",
      "type": "function"
    },
    {
      "inputs": [
        {
          "internalType": "address",
          "name": "operator",
          "type": "address"
        },
        {
          "internalType": "bytes32",
          "name": "tokenId",
          "type": "bytes32"
        }
      ],
      "name": "isOperatorFor",
      "outputs": [
        {
          "internalType": "bool",
          "name": "",
          "type": "bool"
        }
      ],
      "stateMutability": "view",
      "type": "function"
    },
    {
      "inputs": [
        {
          "internalType": "address",
          "name": "to",
          "type": "address"
        },
        {
          "internalType": "bytes12",
          "name": "assetId",
          "type": "bytes12"
        },
        {
          "internalType": "bytes12",
          "name": "variantId",
          "type": "bytes12"
        },
        {
          "internalType": "bool",
          "name": "allowNonLSP1Recipient",
          "type": "bool"
        },
        {
          "internalType": "bytes",
          "name": "data",
          "type": "bytes"
        }
      ],
      "name": "mint",
      "outputs": [],
      "stateMutability": "nonpayable",
      "type": "function"
    },
    {
      "inputs": [],
      "name": "owner",
      "outputs": [
        {
          "internalType": "address",
          "name": "",
          "type": "address"
        }
      ],
      "stateMutability": "view",
      "type": "function"
    },
    {
      "inputs": [],
      "name": "placeholder",
      "outputs": [
        {
          "internalType": "address",
          "name": "",
          "type": "address"
        }
      ],
      "stateMutability": "view",
      "type": "function"
    },
    {
      "inputs": [
        {
          "internalType": "bytes12",
          "name": "variantId",
          "type": "bytes12"
        },
        {
          "internalType": "bytes",
          "name": "metadataUrl",
          "type": "bytes"
        }
      ],
      "name": "registerVariant",
      "outputs": [],
      "stateMutability": "nonpayable",
      "type": "function"
    },
    {
      "inputs": [],
      "name": "renounceOwnership",
      "outputs": [],
      "stateMutability": "nonpayable",
      "type": "function"
    },
    {
      "inputs": [
        {
          "internalType": "address",
          "name": "operator",
          "type": "address"
        },
        {
          "internalType": "bytes32",
          "name": "tokenId",
          "type": "bytes32"
        },
        {
          "internalType": "bytes",
          "name": "operatorNotificationData",
          "type": "bytes"
        }
      ],
      "name": "revokeOperator",
      "outputs": [],
      "stateMutability": "nonpayable",
      "type": "function"
    },
    {
      "inputs": [
        {
          "internalType": "bytes32",
          "name": "dataKey",
          "type": "bytes32"
        },
        {
          "internalType": "bytes",
          "name": "dataValue",
          "type": "bytes"
        }
      ],
      "name": "setData",
      "outputs": [],
      "stateMutability": "payable",
      "type": "function"
    },
    {
      "inputs": [
        {
          "internalType": "bytes32[]",
          "name": "dataKeys",
          "type": "bytes32[]"
        },
        {
          "internalType": "bytes[]",
          "name": "dataValues",
          "type": "bytes[]"
        }
      ],
      "name": "setDataBatch",
      "outputs": [],
      "stateMutability": "payable",
      "type": "function"
    },
    {
      "inputs": [
        {
          "internalType": "bytes4",
          "name": "_interfaceId",
          "type": "bytes4"
        }
      ],
      "name": "supportsInterface",
      "outputs": [
        {
          "internalType": "bool",
          "name": "",
          "type": "bool"
        }
      ],
      "stateMutability": "view",
      "type": "function"
    },
    {
      "inputs": [
        {
          "internalType": "address",
          "name": "tokenOwner",
          "type": "address"
        }
      ],
      "name": "tokenIdsOf",
      "outputs": [
        {
          "internalType": "bytes32[]",
          "name": "",
          "type": "bytes32[]"
        }
      ],
      "stateMutability": "view",
      "type": "function"
    },
    {
      "inputs": [
        {
          "internalType": "bytes32",
          "name": "tokenId",
          "type": "bytes32"
        }
      ],
      "name": "tokenOwnerOf",
      "outputs": [
        {
          "internalType": "address",
          "name": "",
          "type": "address"
        }
      ],
      "stateMutability": "view",
      "type": "function"
    },
    {
      "inputs": [],
      "name": "tokenSupplyCap",
      "outputs": [
        {
          "internalType": "uint256",
          "name": "",
          "type": "uint256"
        }
      ],
      "stateMutability": "view",
      "type": "function"
    },
    {
      "inputs": [],
      "name": "totalSupply",
      "outputs": [
        {
          "internalType": "uint256",
          "name": "",
          "type": "uint256"
        }
      ],
      "stateMutability": "view",
      "type": "function"
    },
    {
      "inputs": [
        {
          "internalType": "address",
          "name": "from",
          "type": "address"
        },
        {
          "internalType": "address",
          "name": "to",
          "type": "address"
        },
        {
          "internalType": "bytes32",
          "name": "tokenId",
          "type": "bytes32"
        },
        {
          "internalType": "bool",
          "name": "allowNonLSP1Recipient",
          "type": "bool"
        },
        {
          "internalType": "bytes",
          "name": "data",
          "type": "bytes"
        }
      ],
      "name": "transfer",
      "outputs": [],
      "stateMutability": "nonpayable",
      "type": "function"
    },
    {
      "inputs": [
        {
          "internalType": "address[]",
          "name": "from",
          "type": "address[]"
        },
        {
          "internalType": "address[]",
          "name": "to",
          "type": "address[]"
        },
        {
          "internalType": "bytes32[]",
          "name": "tokenId",
          "type": "bytes32[]"
        },
        {
          "internalType": "bool[]",
          "name": "allowNonLSP1Recipient",
          "type": "bool[]"
        },
        {
          "internalType": "bytes[]",
          "name": "data",
          "type": "bytes[]"
        }
      ],
      "name": "transferBatch",
      "outputs": [],
      "stateMutability": "nonpayable",
      "type": "function"
    },
    {
      "inputs": [
        {
          "internalType": "address",
          "name": "newOwner",
          "type": "address"
        }
      ],
      "name": "transferOwnership",
      "outputs": [],
      "stateMutability": "nonpayable",
      "type": "function"
    },
    {
      "inputs": [
        {
          "internalType": "bytes12",
          "name": "variantId",
          "type": "bytes12"
        }
      ],
      "name": "unregisterVariant",
      "outputs": [],
      "stateMutability": "nonpayable",
      "type": "function"
    },
    {
      "stateMutability": "payable",
      "type": "receive"
    }
  ],
  "bytecode": "0x60a06040523480156200001157600080fd5b506040516200368138038062003681833981016040819052620000349162000584565b81858585828282806001600160a01b038116620000a75760405162461bcd60e51b815260206004820152602660248201527f4f776e61626c653a206e6577206f776e657220697320746865207a65726f206160448201526564647265737360d01b60648201526084015b60405180910390fd5b620000b281620001f1565b506040805180820190915260048152632936598960e21b6020820152620000fb907feafec4d89fa9619884b60000a4d96624a38f7ac2d8d9a604ecf07c12c77e480c9062000258565b620001277fdeba1e292f8ba88238e10ab3c7f88bd4be4fac56cad5194b6ecceaf653468af18462000258565b620001537f2f0a68ab07768e01943a599e73362a0e17a63a72e94dd2e384d2c1d4db9327568362000258565b505050505050806000036200017b5760405163038d9fc360e41b815260040160405180910390fd5b608052600780546001600160a01b0319166001600160a01b0383161790556040805160046020820181905291620001e5917f715f248956de7ce65e94d9d836bfead479f7e70d69b718d47bfe7b00e05b4fe4910160408051601f19818403018152919052620002a0565b505050505050620007d5565b6000546001600160a01b038281169116146200025557600080546001600160a01b038381166001600160a01b0319831681178455604051919092169283917f8be0079c531659141344cd1fd0a4f28419497f9722a3daafe3b4186f6b6457e09190a3505b50565b6000828152600160205260409020620002728282620006ac565b5081600080516020620036618339815191528260405162000294919062000778565b60405180910390a25050565b7f2145e1d6d074577dc71ef54c3807742b41b053a9352ae6b491331509acb9750f8201620002e1576040516385c169bd60e01b815260040160405180910390fd5b7fd0f59754f88971fe6bc5a6618cc9d5f1e859c58d16b22d1c7b2d3e2b246cd8aa82016200032257604051630eceab6760e31b815260040160405180910390fd5b60008281526001602052604090206200033c8282620006ac565b5081600080516020620036618339815191526101008351111562000370576200036a83600061010062000381565b62000372565b825b60405162000294919062000778565b6060816200039181601f620007ad565b1015620003d25760405162461bcd60e51b815260206004820152600e60248201526d736c6963655f6f766572666c6f7760901b60448201526064016200009e565b620003de8284620007ad565b84511015620004245760405162461bcd60e51b8152602060048201526011602482015270736c6963655f6f75744f66426f756e647360781b60448201526064016200009e565b60608215801562000445576040519150600082526020820160405262000491565b6040519150601f8416801560200281840101858101878315602002848b0101015b818310156200048057805183526020928301920162000466565b5050858452601f01601f1916604052505b50949350505050565b634e487b7160e01b600052604160045260246000fd5b60005b83811015620004cd578181015183820152602001620004b3565b50506000910152565b600082601f830112620004e857600080fd5b81516001600160401b03808211156200050557620005056200049a565b604051601f8301601f19908116603f011681019082821181831017156200053057620005306200049a565b816040528381528660208588010111156200054a57600080fd5b6200055d846020830160208901620004b0565b9695505050505050565b80516001600160a01b03811681146200057f57600080fd5b919050565b600080600080600060a086880312156200059d57600080fd5b85516001600160401b0380821115620005b557600080fd5b620005c389838a01620004d6565b96506020880151915080821115620005da57600080fd5b50620005e988828901620004d6565b945050620005fa6040870162000567565b925060608601519150620006116080870162000567565b90509295509295909350565b600181811c908216806200063257607f821691505b6020821081036200065357634e487b7160e01b600052602260045260246000fd5b50919050565b601f821115620006a757600081815260208120601f850160051c81016020861015620006825750805b601f850160051c820191505b81811015620006a3578281556001016200068e565b5050505b505050565b81516001600160401b03811115620006c857620006c86200049a565b620006e081620006d984546200061d565b8462000659565b602080601f831160018114620007185760008415620006ff5750858301515b600019600386901b1c1916600185901b178555620006a3565b600085815260208120601f198616915b82811015620007495788860151825594840194600190910190840162000728565b5085821015620007685787850151600019600388901b60f8161c191681555b5050505050600190811b01905550565b602081526000825180602084015262000799816040850160208701620004b0565b601f01601f19169190910160400192915050565b80820180821115620007cf57634e487b7160e01b600052601160045260246000fd5b92915050565b608051612e69620007f86000396000818161030301526114170152612e696000f3fe60806040526004361061015a5760003560e01c8063715018a6116100c15780639e75143c1161007a5780639e75143c1461044d578063a3b261f21461046d578063cd4977c81461049a578063dedff9c6146104ba578063f18776a0146104e7578063f1b97e0414610507578063f2fde38b146105275761019a565b8063715018a6146103b45780637e87632c146103c95780637f23690c146103e957806386a10ddd146103fc5780638da5cb5b1461041c578063979024211461043a5761019a565b8063511b695211610113578063511b6952146102d457806352058d8a146102f457806354f6127f14610327578063674986ff146103545780636cb1c9491461037457806370a08231146103945761019a565b806301ffc9a7146101e457806318160ddd14610219578063217b2270146102385780632a3654a4146102655780632b7c023c1461028557806349a6078d146102a75761019a565b3661019a577f88a5966d370b9919b20f3e2c13ff65706f196a4e32cc2c12bf57088f8852587433346040516101909291906121ad565b60405180910390a1005b600036606060048210156101ce57828260405163e5099ee360e01b81526004016101c59291906121c6565b60405180910390fd5b6101d88383610547565b80519350602001915050f35b3480156101f057600080fd5b506102046101ff3660046121f5565b61063c565b60405190151581526020015b60405180910390f35b34801561022557600080fd5b506002545b604051908152602001610210565b34801561024457600080fd5b5061025861025336600461221f565b61067c565b6040516102109190612238565b34801561027157600080fd5b50610204610280366004612268565b6106b5565b34801561029157600080fd5b506102a56102a036600461237d565b6106d1565b005b3480156102b357600080fd5b506102c76102c236600461221f565b610968565b60405161021091906123fc565b3480156102e057600080fd5b506102a56102ef366004612449565b61098a565b34801561030057600080fd5b507f000000000000000000000000000000000000000000000000000000000000000061022a565b34801561033357600080fd5b5061034761034236600461221f565b6109d9565b60405161021091906124dd565b34801561036057600080fd5b5061020461036f3660046124f0565b6109e4565b34801561038057600080fd5b506102a561038f3660046124f0565b610a6e565b3480156103a057600080fd5b5061022a6103af36600461250b565b610b64565b3480156103c057600080fd5b506102a5610b85565b3480156103d557600080fd5b506102a56103e43660046126f2565b610b99565b6102a56103f73660046127b6565b610c88565b34801561040857600080fd5b506102a56104173660046127fc565b610cbd565b34801561042857600080fd5b506000546001600160a01b0316610258565b6102a5610448366004612852565b610e0b565b34801561045957600080fd5b50600754610258906001600160a01b031681565b34801561047957600080fd5b5061048d61048836600461250b565b610ecb565b60405161021091906128ab565b3480156104a657600080fd5b506102a56104b53660046128e3565b610eef565b3480156104c657600080fd5b506104da6104d536600461291a565b611019565b604051610210919061294e565b3480156104f357600080fd5b5061022a6105023660046129b0565b6110c3565b34801561051357600080fd5b506102a56105223660046127fc565b611151565b34801561053357600080fd5b506102a561054236600461250b565b61122b565b606060006105606000356001600160e01b0319166112a4565b90506001600160a01b038116610597576000356001600160e01b03191660405163bb370b2b60e01b81526004016101c591906129e3565b600080826001600160a01b031634878733346040516020016105bc94939291906129f8565b60408051601f19818403018152908290526105d691612a23565b60006040518083038185875af1925050503d8060008114610613576040519150601f19603f3d011682016040523d82523d6000602084013e610618565b606091505b5091509150811561062d579250610636915050565b80518060208301fd5b92915050565b60006001600160e01b03198216630e25267160e11b148061066d57506001600160e01b03198216632902c6c560e11b145b8061063657506106368261131d565b6000818152600360205260408120546001600160a01b03168061063657604051635747cd1b60e11b8152600481018490526024016101c5565b60006106c082611351565b6106ca838361137a565b9392505050565b6007546001600160a01b031633146106fc57604051634281885f60e11b815260040160405180910390fd5b6001600160a01b031984166107245760405163baceb31160e01b815260040160405180910390fd5b6040805160608101918290526316b96e9360e31b9091526000908073__$032f01bb2624c0993c8bfa756ae89be841$__63b5cb74986107663060648501612238565b602060405180830381865af4158015610783573d6000803e3d6000fd5b505050506040513d601f19601f820116820180604052508101906107a79190612a3f565b6001600160d01b03191681526001600160a01b03198087166020830152871660409182015251630849ed4d60e11b815290915060009073__$032f01bb2624c0993c8bfa756ae89be841$__90631093da9a90610807908590600401612a69565b602060405180830381865af4158015610824573d6000803e3d6000fd5b505050506040513d601f19601f820116820180604052508101906108489190612aa4565b90506108556008826113e0565b6108725760405163b103414760e01b815260040160405180910390fd5b6040516320e5304f60e01b815260009073__$032f01bb2624c0993c8bfa756ae89be841$__906320e5304f906108ac908690600401612a69565b602060405180830381865af41580156108c9573d6000803e3d6000fd5b505050506040513d601f19601f820116820180604052508101906108ed9190612aa4565b90506108f8816113f8565b156109165760405163136d457160e21b815260040160405180910390fd5b61092288828787611415565b60405181906001600160a01b0319808a1691908916907f8846f9de517619441451dee05d1a37b152ac31ba0b8b22c0635005860b90c40090600090a45050505050505050565b606061097382611351565b600082815260056020526040902061063690611475565b33610995818561137a565b6109c457604051631294d2a960e01b8152600481018590526001600160a01b03821660248201526044016101c5565b6109d18686868686611482565b505050505050565b606061063682611628565b60008073__$032f01bb2624c0993c8bfa756ae89be841$__63c27407d030856040518363ffffffff1660e01b8152600401610a20929190612abd565b602060405180830381865af4158015610a3d573d6000803e3d6000fd5b505050506040513d601f19601f82011682018060405250810190610a619190612aa4565b90506106ca6008826113e0565b610a766116ca565b604051630c27407d60e41b815260009073__$032f01bb2624c0993c8bfa756ae89be841$__9063c27407d090610ab29030908690600401612abd565b602060405180830381865af4158015610acf573d6000803e3d6000fd5b505050506040513d601f19601f82011682018060405250810190610af39190612aa4565b9050610b006008826113e0565b610b1d5760405163b103414760e01b815260040160405180910390fd5b610b28600882611733565b507fee0b0acde00de9a1c6e66517c637f4a59a543dff15739ad2200659454001896f82604051610b589190612ae0565b60405180910390a15050565b6001600160a01b03811660009081526004602052604081206106369061173f565b610b8d6116ca565b610b976000611749565b565b8451845181141580610bac575083518114155b80610bb8575082518114155b80610bc4575081518114155b15610be2576040516393a8311960e01b815260040160405180910390fd5b60005b81811015610c7f57610c77878281518110610c0257610c02612af5565b6020026020010151878381518110610c1c57610c1c612af5565b6020026020010151878481518110610c3657610c36612af5565b6020026020010151878581518110610c5057610c50612af5565b6020026020010151878681518110610c6a57610c6a612af5565b602002602001015161098a565b600101610be5565b50505050505050565b610c906116ca565b3415610caf5760405163f36ba73760e01b815260040160405180910390fd5b610cb982826117ae565b5050565b6000610cc88361067c565b90506001600160a01b0381163314610cf957808333604051632d938f5160e11b81526004016101c593929190612b0b565b6001600160a01b038416610d2057604051639577b8b360e01b815260040160405180910390fd5b836001600160a01b0316816001600160a01b031603610d52576040516344fed6b160e11b815260040160405180910390fd5b6000838152600560205260408120610d6a90866118a2565b905080610d8e5784846040516314ec4d6d60e31b81526004016101c59291906121ad565b83826001600160a01b0316866001600160a01b03167e52e433f2d4225671bc164dd1cdc9a76044356091f27ad234798bd0cbf0834986604051610dd191906124dd565b60405180910390a46000338585604051602001610df093929190612b2e565b60405160208183030381529060405290506109d186826118b7565b610e136116ca565b3415610e325760405163f36ba73760e01b815260040160405180910390fd5b8051825114610e5457604051633bcc897960e01b815260040160405180910390fd5b8151600003610e76576040516397da5f9560e01b815260040160405180910390fd5b60005b8251811015610ec657610ebe838281518110610e9757610e97612af5565b6020026020010151838381518110610eb157610eb1612af5565b60200260200101516117ae565b600101610e79565b505050565b6001600160a01b038116600090815260046020526040902060609061063690611475565b610ef76116ca565b604051630c27407d60e41b815260009073__$032f01bb2624c0993c8bfa756ae89be841$__9063c27407d090610f339030908790600401612abd565b602060405180830381865af4158015610f50573d6000803e3d6000fd5b505050506040513d601f19601f82011682018060405250810190610f749190612aa4565b90506001600160a01b03198316610f9e57604051633f0bb8a360e01b815260040160405180910390fd5b610fa96008826113e0565b15610fc7576040516376996b1f60e01b815260040160405180910390fd5b610fd260088261198f565b50610fdd81836117ae565b7fcd698deeac260311b9d0b77d8c223846316aec4961b01b0cdc1f26e666cd25038360405161100c9190612ae0565b60405180910390a1505050565b606081516001600160401b03811115611034576110346122ba565b60405190808252806020026020018201604052801561106757816020015b60608152602001906001900390816110525790505b50905060005b82518110156110bd5761109883828151811061108b5761108b612af5565b6020026020010151611628565b8282815181106110aa576110aa612af5565b602090810291909101015260010161106d565b50919050565b6040516332e33fa360e11b81523060048201526001600160a01b031980841660248301528216604482015260009073__$032f01bb2624c0993c8bfa756ae89be841$__906365c67f4690606401602060405180830381865af415801561112d573d6000803e3d6000fd5b505050506040513d601f19601f820116820180604052508101906106ca9190612aa4565b600061115c8361067c565b90506001600160a01b038116331461118d57808333604051632d938f5160e11b81526004016101c593929190612b0b565b6001600160a01b0384166111b457604051639577b8b360e01b815260040160405180910390fd5b836001600160a01b0316816001600160a01b0316036111e6576040516344fed6b160e11b815260040160405180910390fd5b6111f28482858561199b565b600033848460405160200161120993929190612b2e565b604051602081830303815290604052905061122485826118b7565b5050505050565b6112336116ca565b6001600160a01b0381166112985760405162461bcd60e51b815260206004820152602660248201527f4f776e61626c653a206e6577206f776e657220697320746865207a65726f206160448201526564647265737360d01b60648201526084016101c5565b6112a181611749565b50565b6000806112c8696773c5a04a6d4300884b60b11b6001600160e01b03198516611a2a565b905060006112d582611628565b905080516014141580156112e95750805115155b1561130957806040516342bfe79f60e01b81526004016101c591906124dd565b61131281612b5e565b60601c949350505050565b60006001600160e01b03198216631ae9ba1f60e01b1480611342575061134282611a76565b80610636575061063682611a9b565b61135a816113f8565b6112a157604051635747cd1b60e11b8152600481018290526024016101c5565b6000806113868361067c565b9050806001600160a01b0316846001600160a01b031614806113d8575060008381526005602052604090206113d890856001600160a01b038116600090815260018301602052604081205415156106ca565b949350505050565b600081815260018301602052604081205415156106ca565b6000908152600360205260409020546001600160a01b0316151590565b7f0000000000000000000000000000000000000000000000000000000000000000600254611444906001612bab565b11156114635760405163e8ba229160e01b815260040160405180910390fd5b61146f84848484611ad1565b50505050565b606060006106ca83611bfc565b836001600160a01b0316856001600160a01b0316036114b457604051635d67d6c160e01b815260040160405180910390fd5b60006114bf8461067c565b9050856001600160a01b0316816001600160a01b0316146114f957808487604051632d938f5160e11b81526004016101c593929190612b0b565b6001600160a01b038516611520576040516324ecef4d60e01b815260040160405180910390fd5b3361152b8786611c57565b6001600160a01b038716600090815260046020526040902061154d9086611733565b506001600160a01b0386166000908152600460205260409020611570908661198f565b506000858152600360205260409081902080546001600160a01b0319166001600160a01b0389811691821790925591518792918a16907fb333c813a7426a7a11e2b190cad52c44119421594b47f6f32ace6d8c7207b2bf906115d79086908a908a90612bbe565b60405180910390a46000878787866040516020016115f89493929190612bea565b60405160208183030381529060405290506116138882611cae565b61161e878683611d59565b5050505050505050565b600081815260016020526040902080546060919061164590612c27565b80601f016020809104026020016040519081016040528092919081815260200182805461167190612c27565b80156116be5780601f10611693576101008083540402835291602001916116be565b820191906000526020600020905b8154815290600101906020018083116116a157829003601f168201915b50505050509050919050565b336116dd6000546001600160a01b031690565b6001600160a01b031614610b975760405162461bcd60e51b815260206004820181905260248201527f4f776e61626c653a2063616c6c6572206973206e6f7420746865206f776e657260448201526064016101c5565b60006106ca8383611e4f565b6000610636825490565b6000546001600160a01b038281169116146112a157600080546001600160a01b038381166001600160a01b0319831681178455604051919092169283917f8be0079c531659141344cd1fd0a4f28419497f9722a3daafe3b4186f6b6457e09190a35050565b7f2145e1d6d074577dc71ef54c3807742b41b053a9352ae6b491331509acb9750f82016117ee576040516385c169bd60e01b815260040160405180910390fd5b7fd0f59754f88971fe6bc5a6618cc9d5f1e859c58d16b22d1c7b2d3e2b246cd8aa820161182e57604051630eceab6760e31b815260040160405180910390fd5b60008281526001602052604090206118468282612ca1565b50817fece574603820d07bc9b91f2a932baadf4628aabcb8afba49776529c14a6104b26101008351111561188757611882836000610100611f42565b611889565b825b60405161189691906124dd565b60405180910390a25050565b60006106ca836001600160a01b03841661204f565b6118c882631aed5a8560e21b61209e565b15610cb9576040516001600160a01b03831690631aed5a8560e21b90611914907f8a1c15a8799f71b547e08e2bcb2e85257e81b0a07eee2ce6712549eef1f00970908590602401612d60565b60408051601f198184030181529181526020820180516001600160e01b03166001600160e01b03199094169390931790925290516119529190612a23565b6000604051808303816000865af19150503d8060008114611224576040519150601f19603f3d011682016040523d82523d6000602084013e611224565b60006106ca838361204f565b60008281526005602052604081206119b39086612132565b9050806119d75784836040516312a8c6a360e21b81526004016101c59291906121ad565b82846001600160a01b0316866001600160a01b03167f501bc920d7f604417e315bcf29247652b2327fa1076b27b7f132bd8927cb15ea85604051611a1b91906124dd565b60405180910390a45050505050565b604080516001600160b01b0319841660208201526000602a82018190526001600160601b03198416602c830152918291016040516020818303038152906040529050806113d890612d79565b60006001600160e01b0319821663a918fa6b60e01b1480610636575061063682612147565b600080611aae6301ffc9a760e01b6112a4565b90506001600160a01b038116611ac75750600092915050565b6106ca818461209e565b6001600160a01b038416611af8576040516324ecef4d60e01b815260040160405180910390fd5b611b01836113f8565b15611b22576040516334c7b51160e01b8152600481018490526024016101c5565b33600160026000828254611b369190612bab565b90915550506001600160a01b0385166000908152600460205260409020611b5d908561198f565b5060008481526003602052604080822080546001600160a01b0319166001600160a01b03891690811790915590518692907fb333c813a7426a7a11e2b190cad52c44119421594b47f6f32ace6d8c7207b2bf90611bbf90869089908990612bbe565b60405180910390a4600080868685604051602001611be09493929190612bea565b60405160208183030381529060405290506109d1868583611d59565b6060816000018054806020026020016040519081016040528092919081815260200182805480156116be57602002820191906000526020600020905b815481526020019060010190808311611c385750505050509050919050565b600081815260056020526040812090611c6f8261173f565b905060005b81811015611224576000611c88848261217c565b9050611ca58187876040518060200160405280600081525061199b565b50600101611c74565b611cbf82631aed5a8560e21b61209e565b15610cb957604051631aed5a8560e21b81526001600160a01b03831690636bb56a1490611d12907fb23eae7e6d1564b295b4c3e3be402d9a2f0776c57bdf365903496f6fa481ab00908590600401612d60565b6000604051808303816000875af1158015611d31573d6000803e3d6000fd5b505050506040513d6000823e601f3d908101601f19168201604052610ec69190810190612d9d565b611d6a83631aed5a8560e21b61209e565b15611e0457604051631aed5a8560e21b81526001600160a01b03841690636bb56a1490611dbd907f0b084a55ebf70fd3c06fd755269dac2212c4d3f0f4d09079780bfa50c1b2984d908590600401612d60565b6000604051808303816000875af1158015611ddc573d6000803e3d6000fd5b505050506040513d6000823e601f3d908101601f1916820160405261146f9190810190612d9d565b81610ec6576001600160a01b0383163b15611e345782604051634349776d60e01b81526004016101c59190612238565b82604051630317313760e01b81526004016101c59190612238565b60008181526001830160205260408120548015611f38576000611e73600183612e0a565b8554909150600090611e8790600190612e0a565b9050818114611eec576000866000018281548110611ea757611ea7612af5565b9060005260206000200154905080876000018481548110611eca57611eca612af5565b6000918252602080832090910192909255918252600188019052604090208390555b8554869080611efd57611efd612e1d565b600190038181906000526020600020016000905590558560010160008681526020019081526020016000206000905560019350505050610636565b6000915050610636565b606081611f5081601f612bab565b1015611f8f5760405162461bcd60e51b815260206004820152600e60248201526d736c6963655f6f766572666c6f7760901b60448201526064016101c5565b611f998284612bab565b84511015611fdd5760405162461bcd60e51b8152602060048201526011602482015270736c6963655f6f75744f66426f756e647360781b60448201526064016101c5565b606082158015611ffc5760405191506000825260208201604052612046565b6040519150601f8416801560200281840101858101878315602002848b0101015b8183101561203557805183526020928301920161201d565b5050858452601f01601f1916604052505b50949350505050565b600081815260018301602052604081205461209657508154600181810184556000848152602080822090930184905584548482528286019093526040902091909155610636565b506000610636565b6000806301ffc9a760e01b836040516024016120ba91906129e3565b604051602081830303815290604052906001600160e01b0319166020820180516001600160e01b03838183161783525050505090506000806000602060008551602087018a617530fa92503d9150600051905082801561211b575060208210155b80156121275750600081115b979650505050505050565b60006106ca836001600160a01b038416611e4f565b60006001600160e01b031982166318a6a9a560e21b148061063657506301ffc9a760e01b6001600160e01b0319831614610636565b60006106ca8383600082600001828154811061219a5761219a612af5565b9060005260206000200154905092915050565b6001600160a01b03929092168252602082015260400190565b60208152816020820152818360408301376000818301604090810191909152601f909201601f19160101919050565b60006020828403121561220757600080fd5b81356001600160e01b0319811681146106ca57600080fd5b60006020828403121561223157600080fd5b5035919050565b6001600160a01b0391909116815260200190565b80356001600160a01b038116811461226357600080fd5b919050565b6000806040838503121561227b57600080fd5b6122848361224c565b946020939093013593505050565b80356001600160a01b03198116811461226357600080fd5b8035801515811461226357600080fd5b634e487b7160e01b600052604160045260246000fd5b604051601f8201601f191681016001600160401b03811182821017156122f8576122f86122ba565b604052919050565b60006001600160401b03821115612319576123196122ba565b50601f01601f191660200190565b600082601f83011261233857600080fd5b813561234b61234682612300565b6122d0565b81815284602083860101111561236057600080fd5b816020850160208301376000918101602001919091529392505050565b600080600080600060a0868803121561239557600080fd5b61239e8661224c565b94506123ac60208701612292565b93506123ba60408701612292565b92506123c8606087016122aa565b915060808601356001600160401b038111156123e357600080fd5b6123ef88828901612327565b9150509295509295909350565b6020808252825182820181905260009190848201906040850190845b8181101561243d5783516001600160a01b031683529284019291840191600101612418565b50909695505050505050565b600080600080600060a0868803121561246157600080fd5b61246a8661224c565b94506124786020870161224c565b9350604086013592506123c8606087016122aa565b60005b838110156124a8578181015183820152602001612490565b50506000910152565b600081518084526124c981602086016020860161248d565b601f01601f19169290920160200192915050565b6020815260006106ca60208301846124b1565b60006020828403121561250257600080fd5b6106ca82612292565b60006020828403121561251d57600080fd5b6106ca8261224c565b60006001600160401b0382111561253f5761253f6122ba565b5060051b60200190565b600082601f83011261255a57600080fd5b8135602061256a61234683612526565b82815260059290921b8401810191818101908684111561258957600080fd5b8286015b848110156125ab5761259e8161224c565b835291830191830161258d565b509695505050505050565b600082601f8301126125c757600080fd5b813560206125d761234683612526565b82815260059290921b840181019181810190868411156125f657600080fd5b8286015b848110156125ab57803583529183019183016125fa565b600082601f83011261262257600080fd5b8135602061263261234683612526565b82815260059290921b8401810191818101908684111561265157600080fd5b8286015b848110156125ab57612666816122aa565b8352918301918301612655565b600082601f83011261268457600080fd5b8135602061269461234683612526565b82815260059290921b840181019181810190868411156126b357600080fd5b8286015b848110156125ab5780356001600160401b038111156126d65760008081fd5b6126e48986838b0101612327565b8452509183019183016126b7565b600080600080600060a0868803121561270a57600080fd5b85356001600160401b038082111561272157600080fd5b61272d89838a01612549565b9650602088013591508082111561274357600080fd5b61274f89838a01612549565b9550604088013591508082111561276557600080fd5b61277189838a016125b6565b9450606088013591508082111561278757600080fd5b61279389838a01612611565b935060808801359150808211156127a957600080fd5b506123ef88828901612673565b600080604083850312156127c957600080fd5b8235915060208301356001600160401b038111156127e657600080fd5b6127f285828601612327565b9150509250929050565b60008060006060848603121561281157600080fd5b61281a8461224c565b92506020840135915060408401356001600160401b0381111561283c57600080fd5b61284886828701612327565b9150509250925092565b6000806040838503121561286557600080fd5b82356001600160401b038082111561287c57600080fd5b612888868387016125b6565b9350602085013591508082111561289e57600080fd5b506127f285828601612673565b6020808252825182820181905260009190848201906040850190845b8181101561243d578351835292840192918401916001016128c7565b600080604083850312156128f657600080fd5b6128ff83612292565b915060208301356001600160401b038111156127e657600080fd5b60006020828403121561292c57600080fd5b81356001600160401b0381111561294257600080fd5b6113d8848285016125b6565b6000602080830181845280855180835260408601915060408160051b870101925083870160005b828110156129a357603f198886030184526129918583516124b1565b94509285019290850190600101612975565b5092979650505050505050565b600080604083850312156129c357600080fd5b6129cc83612292565b91506129da60208401612292565b90509250929050565b6001600160e01b031991909116815260200190565b8385823760609290921b6001600160601b031916919092019081526014810191909152603401919050565b60008251612a3581846020870161248d565b9190910192915050565b600060208284031215612a5157600080fd5b81516001600160d01b0319811681146106ca57600080fd5b81516001600160d01b03191681526020808301516001600160a01b031990811691830191909152604092830151169181019190915260600190565b600060208284031215612ab657600080fd5b5051919050565b6001600160a01b039290921682526001600160a01b031916602082015260400190565b6001600160a01b031991909116815260200190565b634e487b7160e01b600052603260045260246000fd5b6001600160a01b0393841681526020810192909252909116604082015260600190565b60018060a01b0384168152826020820152606060408201526000612b5560608301846124b1565b95945050505050565b805160208201516001600160601b03198082169291906014831015612b8d5780818460140360031b1b83161693505b505050919050565b634e487b7160e01b600052601160045260246000fd5b8082018082111561063657610636612b95565b6001600160a01b03841681528215156020820152606060408201819052600090612b55908301846124b1565b6001600160a01b0385811682528416602082015260408101839052608060608201819052600090612c1d908301846124b1565b9695505050505050565b600181811c90821680612c3b57607f821691505b6020821081036110bd57634e487b7160e01b600052602260045260246000fd5b601f821115610ec657600081815260208120601f850160051c81016020861015612c825750805b601f850160051c820191505b818110156109d157828155600101612c8e565b81516001600160401b03811115612cba57612cba6122ba565b612cce81612cc88454612c27565b84612c5b565b602080601f831160018114612d035760008415612ceb5750858301515b600019600386901b1c1916600185901b1785556109d1565b600085815260208120601f198616915b82811015612d3257888601518255948401946001909101908401612d13565b5085821015612d505787850151600019600388901b60f8161c191681555b5050505050600190811b01905550565b8281526040602082015260006113d860408301846124b1565b805160208083015191908110156110bd5760001960209190910360031b1b16919050565b600060208284031215612daf57600080fd5b81516001600160401b03811115612dc557600080fd5b8201601f81018413612dd657600080fd5b8051612de461234682612300565b818152856020838501011115612df957600080fd5b612b5582602083016020860161248d565b8181038181111561063657610636612b95565b634e487b7160e01b600052603160045260246000fdfea2646970667358221220385ec6889ff076e299182769cb285f28be2d40e8b70796ffa79c829553b26e0764736f6c63430008130033ece574603820d07bc9b91f2a932baadf4628aabcb8afba49776529c14a6104b2",
  "linkReferences": {
    "contracts/TokenUtils.sol": {
      "TokenUtils": [
        {
          "length": 20,
          "start": 3897
        },
        {
          "length": 20,
          "start": 4055
        },
        {
          "length": 20,
          "start": 4220
        },
        {
          "length": 20,
          "start": 4577
        },
        {
          "length": 20,
          "start": 4736
        },
        {
          "length": 20,
          "start": 5889
        },
        {
          "length": 20,
          "start": 6379
        }
      ]
    }
  },
  "deployedLinkReferences": {
    "contracts/TokenUtils.sol": {
      "TokenUtils": [
        {
          "length": 20,
          "start": 1857
        },
        {
          "length": 20,
          "start": 2015
        },
        {
          "length": 20,
          "start": 2180
        },
        {
          "length": 20,
          "start": 2537
        },
        {
          "length": 20,
          "start": 2696
        },
        {
          "length": 20,
          "start": 3849
        },
        {
          "length": 20,
          "start": 4339
        }
      ]
    }
  }
}